:020000040800F2
:10000000F8410020CD0100085112000849120008F3
:100010004D1200087D0200082F16000800000000A5
:10002000000000000000000000000000D1130008E4
:100030008102000800000000AD130008E51400086C
:10004000E7010008E7010008E7010008E7010008F0
:10005000E7010008E7010008E7010008E7010008E0
:10006000E7010008E7010008E7010008E7010008D0
:10007000E7010008E7010008E7010008E7010008C0
:10008000E7010008E7010008E7010008E7010008B0
:10009000E7010008E7010008E7010008E7010008A0
:1000A000E7010008E7010008E7010008E701000890
:1000B000E7010008E7010008E7010008E701000880
:1000C000E7010008E7010008E7010008E701000870
:1000D000E701000849150008E7010008E7010008EA
:1000E000E7010008E7010008E7010008E701000850
:1000F000E7010008E7010008E7010008E701000840
:10010000E7010008E7010008E7010008E70100082F
:10011000E7010008E7010008E7010008E70100081F
:10012000E7010008E7010008E7010008E70100080F
:1001300000F002F800F03AF80AA090E8000C8244BF
:100140008344AAF10107DA4501D100F02FF8AFF29C
:10015000090EBAE80F0013F0010F18BFFB1A43F0A5
:1001600001031847D00B0100F00B0100103A24BF27
:1001700078C878C1FAD8520724BF30C830C144BF0C
:1001800004680C607047000000230024002500264E
:10019000103A28BF78C1FBD8520728BF30C148BFEA
:1001A0000B6070471FB51FBD10B510BD00F033F8D0
:1001B0001146FFF7F7FF01F087FA00F051F803B49A
:1001C000FFF7F2FF03BC01F034FA00000948804752
:1001D00009480047FEE7FEE7FEE7FEE7FEE7FEE729
:1001E000FEE7FEE7FEE7FEE704480549054A064B41
:1001F00070470000E914000831010008F83B0020B6
:10020000F8410020F83D0020F83D0020704770477D
:10021000704770477047754600F02CF8AE460500F1
:100220006946534620F00700854618B020B5FFF711
:10023000DBFFBDE820404FF000064FF000074FF015
:1002400000084FF0000B21F00701AC46ACE8C009F4
:10025000ACE8C009ACE8C009ACE8C0098D467047FD
:1002600010B50446AFF300802046BDE81040FFF70C
:10027000A6BF000000487047943B002000BFFEE787
:1002800070472DE9F04106460C4617461D464420AE
:1002900000F030FFC6F3C70000F026FFC7F3C70029
:1002A00000F022FF452000F025FFE0B200F01CFF27
:1002B000200A00F019FFE8B200F016FF280A00F04B
:1002C00013FFBDE8F0812DE9F04132264FF4967717
:1002D00000F060FA242000F00DFF00250AE0002461
:1002E00004E0FF2000F000FF601C84B2B442F8DBA1
:1002F000681C85B2BD42F2DB00F0A0FEBDE8F081D3
:100300002DE9F041064632274FF49678242000F07C
:10031000F1FE00250CE0002406E005FB0741705CBF
:1003200000F0E2FE601C84B2BC42F6DB681C85B2C1
:100330004545F0DB00F082FEBDE8F0812DE9F0419B
:10034000064632274FF49678242000F0D3FE00258D
:100350000CE0002406E005FB0741705C00F0C4FEE1
:10036000601C84B2BC42F6DB681C85B24545F0DBFC
:1003700000F071FEBDE8F0812DE9F05F82468B460A
:1003800014461E462246E31704EB5373DB10A4EB1E
:10039000C3032BB92146CB1701EB5373DB1005E0E8
:1003A0002046E31704EB5373DB105B1C9FB2B0468F
:1003B0003C2000F09FFE802000F096FE212000F0FF
:1003C00099FE002000F090FE002000F08DFE3C2001
:1003D00000F090FE802000F087FE0BEB0600401E30
:1003E00083B20AEB0400401E82B259465046FFF722
:1003F00048FF5946504600F079FA242000F07AFE72
:10040000002510E04FF0000909E005FB07920A996A
:10041000885C00F069FE09F101001FFA80F9B94516
:10042000F3DB681C85B24545ECDB00F021FEBDE83E
:10043000F09F2DE9F04F05460E4692469B4600245C
:1004400057460320A0EB4A090998002858D054E0E9
:10045000A04641E006EB080291B22A1990B25A4632
:1004600000F036FF06EB080291B22A1B90B25A4602
:1004700000F02EFF321991B2A5EB080290B25A4655
:1004800000F026FF321B91B2A5EB080290B25A464B
:1004900000F01EFFA6EB080291B22A1B90B25A464A
:1004A00000F016FFA6EB080291B22A1990B25A4644
:1004B00000F00EFF321B91B205EB080290B25A46D3
:1004C00000F006FF321991B205EB080290B25A46CD
:1004D00000F0FEFE08F10108B845BBDDB9F1000FE0
:1004E00003DAA000801D814405E0E01B80000A3093
:1004F0008144781E87B2601C84B2BC42A8DD49E00A
:1005000046E0F21991B22A1990B25A4600F0E0FE84
:10051000F21991B22A1B90B25A4600F0D9FE321954
:1005200091B2EA1B90B25A4600F0D2FE321B91B251
:10053000EA1B90B25A4600F0CBFEF21B91B22A1B86
:1005400090B25A4600F0C4FEF21B91B22A1990B242
:100550005A4600F0BDFE321B91B2EA1990B25A46DB
:1005600000F0B6FE321991B2EA1990B25A4600F084
:10057000AFFEB9F1000F03DAA000801D814405E051
:10058000E01B80000A308144781E87B2601C84B270
:10059000BC42B6DDBDE8F08F2DE9FF4F04460D46A5
:1005A00016461F46A146AA46301B01D4301B00E068
:1005B000A01B8346781B002801DC781B00E0E81BA9
:1005C0000390B44201DA012001E04FF0FF300290C5
:1005D000BD4201DA012001E04FF0FF3001900398A5
:1005E0000BEB00080020009000BF0098401CC0B238
:1005F0000090514648460D9A00F06AFE4FEA4801C5
:100600000398814208DBB14500D112E00398804491
:10061000029848441FFA80F94FEA48005845E4DC44
:10062000BA4500D105E0D844019850441FFA80FA39
:10063000DBE700BFBDE8FF8F2DE9F84780460E4697
:1006400091461F46DDE9094ABAF1000F0DD0354643
:1006500008E02B464A46294640460094FFF79CFF97
:10066000681C85B2BD42F4DB1BE033464A46314686
:1006700040460094FFF790FF3B46424631464046D5
:100680000094FFF789FF33464A46394648460094AE
:10069000FFF782FF3B464246394648460094FFF743
:1006A0007BFFBDE8F887000030B50246002110E06E
:1006B000002008E0094C248A01FB0403074D2D6843
:1006C000EA54441CA0B2054C248A8442F2DC4C1C3F
:1006D000A1B2024C648A8C42EADC30BDB83A0020F8
:1006E00008B501214FF4B07000F062FE4FF4805065
:1006F000ADF8000010208DF8030003208DF80200F3
:100700006946214800F008FD2020ADF800001020C7
:100710008DF8030003208DF8020069461B4800F0A5
:10072000FBFC1020ADF800008DF8030003208DF8CD
:1007300002006946154800F0EFFC4FF40040ADF8A8
:10074000000010208DF8030003208DF80200694698
:100750000E4800F0E1FC0220ADF8000010208DF8FA
:10076000030003208DF802006946084800F0D4FC1D
:100770004FF48070ADF8000048208DF80300694602
:10078000034800F0C9FC08BD0020014000140140EE
:100790000018014010B500F081F800F099F812201F
:1007A00000F0A8FC00F094F8212000F0A3FC402009
:1007B00000F09AFC002000F097FC3C2000F09AFC2E
:1007C000052000F091FC112000F094FC032000F0C3
:1007D0008BFC40F22B1340F28F1200210846FFF7EA
:1007E00050FD0021084600F081F800F071F810BDBE
:1007F00010B5044600F052F800F06AF8122000F03C
:1008000079FC00F065F8212000F074FC402000F035
:100810006BFC002000F068FC3C2000F06BFC052025
:1008200000F062FC34B91A2000F064FC6E2000F085
:100830005BFC07E0012C05D11A2000F05BFC5A207C
:1008400000F052FC222000F055FC912000F04CFCFE
:10085000202000F04FFC00F03BF8112000F04AFC93
:10086000032000F041FC40F22B1340F28F120021D4
:100870000846FFF706FD0021084600F037F800F0B3
:1008800027F810BD10B50246012000E050430B1EB2
:10089000A1F10104A1B2F9D110BD000010B51021E1
:1008A0000A4800F0CFFC642000F0E8FE1021074861
:1008B00000F0C6FC0A2000F0E1FE1021034800F021
:1008C000C1FC642000F0DAFE10BD000000140140FD
:1008D00010B506E04FF48071034800F0A8FC00B9A1
:1008E00000E0F7E700BF10BD0018014070B50546F5
:1008F0000C464E2000F0FEFBE8B200F0F5FB4F2066
:1009000000F0F8FBE0B200F0EFFB200A00F0ECFB97
:1009100070BD00002DE9FE4F0746884692461C46F2
:10092000781C87B208F101001FFA80F80197CDF812
:100930000080082C02D14FF006091FE02046E31783
:1009400004EB5373DB1021464FEAE47C04EB5C7C40
:100950004FEAEC0CA4EBCC0CBCF1000F02D04FF032
:10096000010C01E04FF0000C6344224604EBD27C02
:100970004FEA6C0C03FB0CF31FFA83F9AAF1200079
:1009800086B2002568E0082C07D106EB4600344902
:1009900001EB400010F805B027E00C2C07D106EB66
:1009A0004600304901EB800010F805B01DE0102C26
:1009B00005D12D4800EB061010F805B015E0182CF5
:1009C00007D106EBC600294901EB800010F805B0FD
:1009D0000BE0302C07D106EBC600254901EB0010D7
:1009E00010F805B001E0BDE8FE8F002002901CE089
:1009F0000BF0010028B1414638460C9A00F068FC23
:100A000009E00C9808B9012000E0002002464146A8
:100A1000384600F05DFC4FEA6B0B08F101001FFA4D
:100A200080F80298401C80B2029002980828DFDB10
:100A3000781C87B2082C0BD004EBD4714A100199B2
:100A4000791A8A4204D1019F0098083080B2009040
:100A5000DDF80080681C85B24D4594DB00BFC2E71D
:100A6000C4B70008ECB9000860BE000850C4000814
:100A7000ACD100082DE9F8410746884616461C46C9
:100A8000079D2CE00C2C07D12346324641463846C0
:100A9000009500F029F81FE0102C07D123463246BC
:100AA00041463846009500F091F815E0182C07D122
:100AB0002346324641463846009500F0F3F80BE0F5
:100AC000202C07D12346324641463846009500F097
:100AD0005BF901E0BDE8F881B61C381987B23078BF
:100AE0000028CFD100BFF5E72DE9FF4F81B00646C2
:100AF00017461C4600962046E21704EB5272D210AD
:100B00002146E31704EB5373DB10A4EBC3030BB1D3
:100B1000012300E000231A4462431FFA82FB4FF0D6
:100B2000050A00254BE005EB850000EBC5002649D2
:100B300011F81000397888423ED105EB850000EBB2
:100B4000C500214901EB400040787978884233D1D3
:100B50004FF000082EE04FF0000923E005EB850080
:100B600000EBC500184901EB4000801C10F808009C
:100B7000012101FA09F1084020B130460E9A02998C
:100B800000F0A6FB701C86B20098301AA04205D176
:100B9000009E0298401C80B2029006E009F101001C
:100BA00000F0FF09B9F1080FD8DB00BF08F1010020
:100BB00000F0FF08D845CEDB00BF681C85B2554564
:100BC000B1DB05B0BDE8F08F1C0701082DE9FF4F30
:100BD00081B0064617461C4600962046E21704EBF5
:100BE0005272D2102146E31704EB5373DB10A4EBCF
:100BF000C3030BB1012300E000231A4462431FFA30
:100C000082FB4FF00C0A002545E005EB0510244956
:100C100011F81000397888423AD105EB05102049C7
:100C200001EB400040787978884231D14FF00008DC
:100C30002CE04FF0000921E005EB0510184901EB0D
:100C40004000801C10F80800012101FA09F1084059
:100C500020B130460E9A029900F03AFB701C86B221
:100C60000098301AA04205D1009E0298401C80B224
:100C7000029006E009F1010000F0FF09B9F1080F48
:100C8000DADB00BF08F1010000F0FF08D845D0DB37
:100C900000BF681C85B25545B7DB05B0BDE8F08FD5
:100CA0009E0701082DE9FF4F81B0064617461C46F6
:100CB00000962046E21704EB5272D2102146E31749
:100CC00004EB5373DB10A4EBC3030BB1012300E06F
:100CD00000231A4462431FFA82FB4FF0050A0025E5
:100CE0004BE005EB850000EB4510264911F810009C
:100CF000397888423ED105EB850000EB451021494B
:100D000001EB400040787978884233D14FF00008F9
:100D10002EE04FF0000923E005EB850000EB4510C5
:100D2000184901EB4000801C10F80800012101FA6D
:100D300009F1084020B130460E9A029900F0C8FA35
:100D4000701C86B20098301AA04205D1009E02980D
:100D5000401C80B2029006E009F1010000F0FF099A
:100D6000B9F1080FD8DB00BF08F1010000F0FF085F
:100D7000D845CEDB00BF681C85B25545B1DB05B058
:100D8000BDE8F08F360901082DE9FF4F81B0064616
:100D900017461C4600962046E21704EB5272D2100A
:100DA0002146E31704EB5373DB10A4EBC3030BB131
:100DB000012300E000231A4462431FFA82FB4FF034
:100DC000050A002545E005EB8510244911F81000BF
:100DD000397888423AD105EB8510204901EB400073
:100DE00040787978884231D14FF000082CE04FF0FC
:100DF000000921E005EB8510184901EB4000801C3B
:100E000010F80800012101FA09F1084020B130462C
:100E10000E9A029900F05CFA701C86B20098301AA3
:100E2000A04205D1009E0298401C80B2029006E0CC
:100E300009F1010000F0FF09B9F1080FDADB00BF8A
:100E400008F1010000F0FF08D845D0DB00BF681CA6
:100E500085B25545B7DB05B0BDE8F08FA80A01089B
:100E60002DE9FE4F06460F46144699460020029093
:100E70000025701C86B2781C87B200962546204655
:100E8000E21704EB5272D2102146E31704EB5373BE
:100E9000DB10A4EBC3030BB1012300E000231A44D1
:100EA00094B24FF0000841E04FF0000B38E0029997
:100EB0000C98405C01904FF0000A1FE0019800F090
:100EC000800050B10D9808B9012000E000200246D2
:100ED0003946304600F0FCF904E0394630460D9AB8
:100EE00000F0F6F9701C86B24FF6FF71019801EA26
:100EF000400001900AF101001FFA80FABAF1080FD0
:100F0000DCDB0098301AA84202D1009E781C87B220
:100F10000298401C80B202900BF101001FFA80FB86
:100F2000A345C4DB08F101001FFA80F8C845BBDB0C
:100F3000BDE8FE8F2DE9F84106460F4614461D46D2
:100F4000DDF81C800EE0CDF8008022782B46394673
:100F50003046FFF7DFFC641C284605EBD07106EB3A
:100F600061018EB220780028EDD1BDE8F8812DE92D
:100F7000FF4F85B007468A461C46DDE91289484680
:100F800009EBD071C1F3470641460A20FFF77AFC0E
:100F9000019000F0CDFE8346079900F0DDFE02903F
:100FA00000F0A6FE80B20390002537E0601B401ED3
:100FB00081B20A20FFF766FC0399B1FBF0F00A2129
:100FC000B0FBF1F201FB12000490A4EB0800A84270
:100FD00017D11498B34606EBDB725210921EA4EBA5
:100FE000080303FB06731A44009090B2AAF10602AC
:100FF00091B24B463A22FFF78DFC681CC5B2601CCB
:10100000C4B2149805FB0671009088B24B46049A4E
:1010100030325146FFF77EFC681CC5B2A542C5DBE5
:1010200009B0BDE8F08F10B5102000F063F8012082
:1010300000F05AF8C82000F021FB10BD10B52220A6
:1010400000F058F8F72000F04FF8202000F052F898
:10105000FFF73EFC10BD10B5222000F04BF8C72072
:1010600000F042F8202000F045F8FFF731FC10BDF9
:1010700010B5222000F03EF8FF2000F035F82020C7
:1010800000F038F8FFF724FC10BD000070B50446EE
:101090000221134800F0D4F8002519E04FF48051E4
:1010A000104800F0CDF804F0800020B120210C4859
:1010B00000F0C8F803E02021094800F0C1F84FF41F
:1010C0008051084800F0BEF86006040E681CC5B2E6
:1010D000082DE3DB0221024800F0B4F870BD0000E7
:1010E000001401400020014010B504462046FFF7DF
:1010F000CDFF10BD10B504464FF40041054800F087
:101100009FF82046FFF7C2FF4FF40041014800F06E
:1011100099F810BD001401402DE9F0410246002568
:101120000026002000230024002791F803C00CF0C3
:101130000F0591F803C00CF0100CBCF1000F03D0A8
:1011400091F802C04CEA050591F800C0BCF1000F0F
:1011500031D0146800202BE04FF0010C0CFA00F3A2
:10116000B1F800C00CEA03069E4220D183004FF084
:101170000F0C0CFA03F7BC4305FA03FC4CEA040419
:1011800091F803C0BCF1280F06D14FF0010C0CFA06
:1011900000FCC2F814C00AE091F803C0BCF1480F8B
:1011A00005D14FF0010C0CFA00FCC2F810C0401C35
:1011B0000828D1D31460B1F800C0BCF1FF0F34DDB2
:1011C000546800202EE000F1080C4FF0010808FAE6
:1011D0000CF3B1F800C00CEA03069E4221D1830053
:1011E0004FF00F0C0CFA03F7BC4305FA03FC4CEA72
:1011F000040491F803C0BCF1280F05D100F1080CDC
:1012000008FA0CF8C2F8148091F803C0BCF1480F3A
:1012100007D100F1080C4FF0010808FA0CF8C2F8E9
:101220001080401C0828CED35460BDE8F0810246EF
:10123000002093680B400BB1012000E000207047B4
:10124000416170470161704700BFFEE700BFFEE7E4
:10125000704700002DE9F0410646069F00201B4C18
:101260002060204606600181428187810C464FEA5A
:10127000E17C01EB5C7C4FEAEC0CA1EBCC0CBCF10B
:10128000000F07D10D464FEAE57C05EB5C7C4FEA89
:10129000EC0C08E008464FEAE17C01EB5C7C4FEA8D
:1012A000EC0C0CF1010CDFF82480A8F810C04046CB
:1012B0004282C3810BB1B42B03D104488180C28028
:1012C00002E002488280C180BDE8F081B83A002087
:1012D0002DE9F04103461746334EF6893EB15A2EAA
:1012E00008D0B42E0DD0B6F5877F1CD114E0184677
:1012F0000A461AE02C4E3689761A761EB0B21A4685
:1013000013E0294E3689F61A761EB0B2264E76893B
:10131000761A761EB2B208E00846234E7689F61A8F
:10132000761EB2B201E0BDE8F08100BF06464FEA8A
:10133000E07C00EB5C7C4FEAEC0CDFF86C80B8F8EA
:10134000108002FB08C4184E3668355DAFB90646FA
:101350004FEAE07C00EB5C7C4FEAEC0CA0EBCC08A5
:101360004FF0800C4CFA08FC25EA0C0CDFF83880B2
:10137000D8F8008008F804C014E006464FEAE07C84
:1013800000EB5C7C4FEAEC0CA0EBCC084FF0800C3F
:101390004CFA08FC4CEA050CDFF80C80D8F8008009
:1013A00008F804C000BFBEE7B83A0020704700004C
:1013B00029B1064A92690243044B9A6104E0034A48
:1013C00092698243014B9A6170470000001002400D
:1013D000704710B500F002F810BD00000CB50020F9
:1013E000019000903348006840F480303149086033
:1013F00000BF3048006800F4003000900198401CA5
:101400000190009818B90198B0F5A06FF1D1294862
:10141000006800F4003010B10120009001E00020CD
:1014200000900098012843D12348006840F0100044
:10143000214908600846006820F00300086008465B
:10144000006840F0020008601A4840681949486086
:101450000846406848600846406840F4806048603C
:101460000846406820F47C1048600846406840F414
:10147000E81048600846006840F08070086000BFCF
:101480000C48006800F000700028F9D00948406856
:1014900020F00300074948600846406840F0020019
:1014A000486000BF0348406800F00C000828F9D1EC
:1014B0000CBD00000010024000200240042808D1AA
:1014C0004FF0E021096941F004014FF0E022116181
:1014D00007E04FF0E021096921F004014FF0E0221C
:1014E000116170477047000010B51348006840F064
:1014F00001001149086008464068104908400E493B
:101500004860084600680E4908400B4908600846D4
:10151000006820F4802008600846406820F4FE003F
:1015200048604FF41F008860FFF753FF4FF00060E2
:101530000449086010BD0000001002400000FFF8E0
:10154000FFFFF6FE08ED00E010B540F225511D4802
:1015500000F03EF810B31B4800F064F8C4B21A481B
:10156000008800F40040C8B91748008800F48040A3
:1015700060B10A2C03D000201349088020E01248F3
:10158000008840F400401049088019E00D2C06D175
:101590000D48008840F480400B49088010E00A485C
:1015A0000088C0F30D0009490C5407480088401C0E
:1015B0000549088008460088C72801DD002008800A
:1015C00010BD0000003801401C000020CC3A002073
:1015D00070B50246002400230025002040F66A165C
:1015E000B14200D100BFC1F3421501F01F03012633
:1015F00006FA03F3012D02D19689334006E0022D4D
:1016000002D1168A334001E0968A33400C1201263B
:1016100006FA04F41688344013B10CB1012000E03E
:10162000002070BD01468888C0F30800704700BFE5
:10163000FEE7014600BF704710B56FF00400FFF7EA
:101640003DFF0A4800680A49B0FBF1F009490870FB
:101650000846007800EB4001C1EBC0104FF6FF7167
:1016600001EAC0000449088010BD0000000000200D
:1016700000127A0014000020160000200146114AD2
:1016800012884A434FF0E0235A6100229A611A46B9
:10169000126942F001021A6100BF4FF0E0221069A6
:1016A00000F001021AB100F48032002AF5D04FF0A8
:1016B000E022126922F001024FF0E0231A610022B9
:1016C0009A617047160000200EB5524CFFF7B4FF28
:1016D000FFF706F8FFF75EF84F48FEF711FEFFF739
:1016E000A2FC0120FFF784F84C48FEF727FEFFF725
:1016F0009AFC4FF47A70FFF7C1FFFEF7E4FDFF207C
:1017000000234FF496724FF4C87100904448FFF7DD
:10171000A1FDFF20FEF7C8FF41484FF496734FF438
:10172000C872002100900846FEF726FE70E00020F7
:101730003C49C6234FF4B872CDE900100146102091
:10174000FFF78EFB0020182337A2C8210090442009
:10175000FFF7F0FB0020102339A2E621009054206F
:10176000FFF7E8FB0020102337A2E62100908C2031
:10177000FFF780F90120002140F227134122CDE933
:101780000010FA211420FEF757FF0020009040F2CD
:1017900027137D22FA2101905020FEF74DFF0120F2
:1017A000002314224FF487710090C820FEF741FEF9
:1017B0000020034614224FF487710090E620FEF7C4
:1017C00038FE0020302102220423CDE900210290BE
:1017D0002246FA214FF48770FFF7C9FB204600F03C
:1017E0005BFA05461E4A1F4B00F070F8074600F0F2
:1017F0003BF804460A484FF496734FF4C872002130
:1018000000900846FEF7B8FD4FF47A70FFF736FFF8
:101810008DE70000CDCC40412C7D0008F01E000873
:1018200020000020885900087A68656E677A686F22
:10183000757A686F6E676A696E677975616E0000A8
:10184000342E32696E636800B5E7D7D3C4ABCBAE34
:10185000C6C1B6CFB5E7BFC9CFD4CABE000000002D
:101860007B14AE47E17A843F21F00042A2F160523E
:10187000B2F5801F01F0004328BFD2F17F6C0BD975
:101880005FEA001C43EAC20242EB507018BF704787
:1018900028BF20F001007047B2F5801FBCBF18467A
:1018A00070474FEA410C1CF5001F02D2084600F0B9
:1018B0001ABB70B500F0B2F800000089FFF7F6BF60
:1018C0004FF00040A0F580007047000010B591EA8D
:1018D000030F48BF83F0004300F1FC80841A71EBD2
:1018E000030C05D2121943EB0C03001B61EB0C0136
:1018F000DFF824E14FEA1154A4EB135C1EEA430F16
:1019000018BF9EEA445F73D023EA0E03DCF1200E79
:1019100021EA045143F4801332D322FA0CFE10EB77
:101920000E0023FA0CFE41EB0E01CCF1200E03FA5F
:101930000EFE10EB0E0051F10001B1F5801FCCF14D
:10194000200E32D201EB045112FA0EF2BDE8104023
:1019500058BF7047401C38BF5FEA420218BF70474B
:10196000002814BF20F0010041F100014FEA4103BB
:1019700013F5001F38BF7047A1F1C04100F09CB8BB
:10198000012A43EB0302ACF1200CDCF11F0E32BF45
:101990004FF0000E23FA0CF310EB030041EB04515F
:1019A000B4EB115FD0D0A1EB045101F580114908CF
:1019B0005FEA300001EB04510ED350F1000038BF54
:1019C00012FA0EFE08D1BDE81040C9E7401C38BF2E
:1019D0005FEA4202CAD1C3E7BDE810404FEA4103C3
:1019E00013F5001F38BF7047A1F1C04100F064B883
:1019F0009EEA445F08D011EA5E0FBDE8104004BFC4
:101A000001F0004100207047BDE8104070B500F0C3
:101A100005F800BF64FBBE3E0000E0FF0EF1020EC1
:101A20002EF0030E5EF8046B364205D4012A43EB18
:101A3000030515F5001F12D8012841EB010C1CF518
:101A4000001F0CD80ED14FEAD17C15F5001F0CEB0E
:101A50004C0C0CF1020C08BF4CEBD37C04E04FF0B3
:101A6000080C01E04FEAD37C0CEB4C0526FA05F696
:101A700006F00706B6F1040C06D20EEB860CBDE8A4
:101A800070404CF0010C6047DFE80CF0090B0202DB
:101A90004FF000414FF00000A1F5002170BD194644
:101AA0001046012851EB010418BFD4F5001484BF7F
:101AB000002001F0004170BD0808A0F500114FEAB8
:101AC0003101704710B591EA030F48BF83F000431E
:101AD0003FF504AF841A71EB030C07D212198CF096
:101AE000004C43EB0C03001B61EB0C01DFF8A4E19D
:101AF0004FEA1154A4EB135C1EEA430F18BF9EEA91
:101B0000445F00F0B08023EA6E03524221EA0451A0
:101B1000C3EB6E0338BF5B1EDCF1200E25D322FA27
:101B20000CFE10EB0E0043FA0CFE41EB0E01CCF163
:101B3000200E03FA0EFE10EB0E0051F10001CCF165
:101B4000200E29D412FA0EF201EB0451BDE8104028
:101B500058BF7047401C1CBFB2F1004F70470028AF
:101B60000CBF491C20F00100704712EB020E43EB42
:101B7000030218BF4FF0010E4EEA4202ACF1200CF6
:101B8000DCF11E0E54D943FA0CFE10EB0E0051F19D
:101B9000FF31CCF11E0ED5D50EF1010E12FA0EFE5C
:101BA000404141EB010101EB445C5FEA5C5C10D910
:101BB00010EBDE7001EB045138BFBEF1004FBDE801
:101BC000104018BF704700280CBF491C20F00100CE
:101BD000704730D24FEAD42C11F5001124F4006480
:101BE0001BD0B1FA81F20B3AA41AA41ED2F1200341
:101BF000914030FA03F31943904001EBCC71002C73
:101C000001EB0451BDE81040A8BF704701F1C0418D
:101C10004FF0000001F000417047B0FA80F310FA75
:101C200003F100D110BDE41A173C4805C90AE4E7E6
:101C300001EB045110BD491001EB0451BDE8104007
:101C40004FEA300002E04FF0000170474A0008BF41
:101C50000042F8D0B2F5001F28BF704701F00041E4
:101C60004FF0000070479EEA445F07D011EA5E0F14
:101C7000BDE8104004BF002100207047BDE81040BF
:101C800070B5FFF7CBFE00BF40DFF63E83F00041AA
:101C9000104670470000E0FF43004FEAD30C4FEAC4
:101CA0003C0C43401FBF40070CF1605113F0FE4F46
:101CB00070471CF0006F03D100200CF0004170470A
:101CC0000CF0004343EA507010B540EACC0000F03D
:101CD000C4F800BF000000924FEA0001FFF7ECBE1D
:101CE0004FF000414FF00000A1F5002170470000C7
:101CF000C10DD1F19E0206DB4FEA002343F0004301
:101D000023FA02F07047004207D54FEA4001B1F1D3
:101D1000FE4F02D24FF00000704710B500F09DF862
:101D200049922480002070476FEA2000704700002D
:101D3000B0FA80F310FA03F2C3F19D030AD0D9057B
:101D400001EB1220530638BF704700F1010008BFB5
:101D500020F00100704700004FF47F0C1CEAD01205
:101D60001EBF1CEAD11392EA0C0F93EA0C0F00F08D
:101D7000478090EA010F48BF42F480724FF0004C58
:101D80004CEA00204CEA012102EB0302A0FB011304
:101D9000A2F50002002918BF43F001035B0028BF31
:101DA0004FEA330342EB22425FEA132C4CEBC25062
:101DB0002EBFBCEB436FB2F57C0F70474FEA036C4C
:101DC000BCF1004F08BF20F00100B2F57C0F38BF16
:101DD00070470BD582F0FF0212F5803FC8BF7047F5
:101DE00000F1C040D8BF00F00040704700F5000C83
:101DF0005FEA4C0C48BF7047B0F1C04000F073B8C8
:101E000090EA010F0CEAD11348BF42F48072624598
:101E100038BF634504D280EA010000F000407047FB
:101E200010B500F01AF800BF8900013E00F007B8B5
:101E300000F009B85FEA410C5FEA1C6C08D080EA48
:101E4000010000F050B85FEA400C5FEA1C6CF6D16C
:101E50004FF00040A0F5800070470EF1020E2EF00A
:101E6000030E5EF8044B244204D44FEA4102B2F15F
:101E70007F4F11D84FEA4003B3F17F4F0CD80ED1FA
:101E80004FEAD07CB2F17F4F0CEB4C0C0CF1020C02
:101E900008BF4CEBD17C04E04FF0080C01E04FEAA6
:101EA000D17C0CEB4C0324FA03F404F00704B4F1E6
:101EB000040C06D20EEB840CBDE810404CF0010C73
:101EC0006047DFE80CF0070802024FF00040A0F581
:101ED000800010BD0846420018BFD2F1807288BF52
:101EE00000F0004010BDFF2141EAD050C00570470E
:101EF000FFFFFFFFFFFFFFFFFFFFFFFFFFFFFFFFF2
:101F0000FFFFFFFFFFFFFFFFFFFFFFFFFFFFFFFFE1
:101F1000FFFFFFFFFFFFFFFFFFFFFFFFFFFFFFFFD1
:101F2000FFFFFFFFFFFFFFFFFFFFFFFFFFFFFFFFC1
:101F3000FFFFFFFFFFFFFFFFFFFFFFFFFFFFFFFFB1
:101F4000FFFFFFFFFFFFFFFFFFFFFFFFFFFFFFFFA1
:101F5000FFFFFFFFFFFFFFFFFFFFFFFFFFFFFFFF91
:101F6000FFFFFFFFFFFFFFFFFFFFFFFFFFFFFFFF81
:101F7000FFFFFFFFFFFFFFFFFFFFFFFFFFFFFFFF71
:101F8000FFFFFFFFFFFFFFFFFFFFFFFFFFFFFFFF61
:101F9000FFFFFFFFFFFFFFFFFFFFFFFFFFFFFFFF51
:101FA000FFFFFFFFFFFFFFFFFFFFFFFFFFFFFFFF41
:101FB000FFFFFFFFFFFFFFFFFFFFFFFFFFFFFFFF31
:101FC000FFFFFFFFFFFFFFFFFFFFFFFFFFFFFFFF21
:101FD000FFFFFFFFFFFFFFFFFFFFFFFFFFFFFFFF11
:101FE000FFFFFFFFFFFFFFFFFFFFFFFFFFFFFFFF01
:101FF000FFFFFFFFFFFFFFFFFFFFFFFFFFFFFFFFF1
:10200000FFFFFFFFFFFFFFFFFFFFFFFFFFFFFFFFE0
:10201000FFFFFFFFFFFFFFFFFFFFFFFFFFFFFFFFD0
:10202000FFFFFFFFFFFFFFFFFFFFFFFFFFFFFFFFC0
:10203000FFFFFFFFFFFFFFFFFFFFFFFFFFFFFFFFB0
:10204000FFFFFFFFFFFFFFFFFFFFFFFFFFFFFFFFA0
:10205000FFFFFFFFFFFFFFFFFFFFFFFFFFFFFFFF90
:10206000FFFFFFFFFFFFFFFFFFFFFFFFFFFFFFFF80
:10207000FFFFFFFFFFFFFFFFFFFFFFFFFFFFFFFF70
:10208000FFFFFFFFFFFFFFFFFFFFFFFFFFFFFFFF60
:10209000FFFFFFFFFFFFFFFFFFFFFFFFFFFFFFFF50
:1020A000FFFFFFFFFFFC00000007FFFFFFFFFFFF38
:1020B000FFFFFFFFFFFFFFFFFFFFFDFFFFFFFFF73A
:1020C000FFFFFFFFFFFFFFFFFFFFFFFFFFFFFFFF20
:1020D000FFFFFFFFFFFFFFFBFFFFFFFBFFFFFFFF18
:1020E000FF3F7FFFFFFFFFFFFFFFFFFFFBFFFFFF44
:1020F000FFEFFFFFFFFFFFFFFFFFFFFFFFFFFFFF00
:10210000FFFFFFFFFFFFFFFFFFFBFFFFFFFBFFFFE7
:102110009FF87EDF7FFFFFF83FC1FC1FC1FFFBF090
:102120007FEFFFEF83FFBFFFFFFFFFFFFFFFFFFF1B
:10213000FFFFFFFFFFFFFFFFFFFFFFFBFFFFFFFBB7
:10214000FFFF9FE39DEEFFFFFFE79F9CF3CFBCFFE8
:10215000F7E73FCFFFDF39FF3FFFFFFFFFFFFFFF45
:10216000FFFFFFFFFFFFFFFFFFFFFFFFFFFBB9FFC9
:10217000FFFBFFFF1FE7DDEEFFFFFFDFCF3E6FE757
:102180003E7FF7CF9E0FFFDE7CF83FFFFFFFFFFF94
:10219000FFFFFFFFFFFFFFFFFFFFFFFFFFFFFFFB53
:1021A000B9FFFFFBFFFE1FCFCDEDFFFFFFDFCF3EEF
:1021B0006FE73E7FE7CF9FCFFF9E7CFF3FFFFFFF94
:1021C000FFFFFFFFFFFFFFFFFFFFFFFFFFFFFFFF1F
:1021D000FFFBB9FFFFFBFFFE9FCFCDEDFFFFFFCF62
:1021E000CF7F27E73E7FEFDFCFCFFFBEFE7F3FFFF2
:1021F000FFFFFFFFFFFFFFFFFFFFFFFFFFFFFFFFEF
:10220000FFFFFFFBB9FFFFF83FFD9F9FE5EBFFFFDF
:10221000FFCFCE7F27E7FE7FCF9FCFCFFF3CFE7F54
:102220003FFFFFFFFFFFFFFFFFFFFFFFFFFFFFFF7E
:10223000FFFFFFFFFFFBB9FFFFFBBFFD9F9FE5EB2C
:10224000FFFFFFFFDE7F3FEFFEFFDF9FCFCFFF7C73
:10225000FE7F3FFFFFFFFFFFFFFFFFFFFFFFFFFFCF
:10226000FFFFFFFFFFFFFFFBB9FFFFFBBFFB9F9FD0
:10227000E6D7FFFFFFFF9E7F3FCFFCFF9F9FCFCFA3
:10228000FE7CFE7F3FFFFFFFFFFFFFFFFFFFFFFF23
:10229000FFFFFFFFFFFFFFFFFFFBB9FFFFFBBFF7E4
:1022A0009F9FE7167FFFFFFF3E7F3F9FF1FFBF9F8E
:1022B000CFCFFEFCFE7F3FFFFFFFFFFFFFFFFFFFD3
:1022C000FFFFFFFFFFFFFFFFFFFFFFFBB9FFFFFB6C
:1022D000BFF79F9FE7F5BFFFFFFF7E7F3FBFFE7FFA
:1022E0003F9FCFCFFCFCFE7F3FFFFFFFFFFFFFFFC5
:1022F000FFFFFFFFFFFFFFFFFFFFFFFFFFFBB9FF38
:10230000FFFBBFEF9F9FE7EBDFFFFFFEFE7F3F7FFF
:10231000FF7F7F9FCFCFFDFCFE7F3FFFFFFFFFFFD3
:10232000FFFFFFFFFFFFFFFFFFFFFFFFFFFFFFFBC1
:10233000B9FFFFFBBFDF9F9FE7EBDFFFFFFDFE7FE6
:102340003EFFFF3E7F9FCFCFF9FCFE7F3FFFFFFFA9
:10235000FFFFFFFFFFFFFFFFFFFFFFFFFFFFFFFF8D
:10236000FFFBB9FFFFF93FC0039FE7DBDFFFFFFB88
:10237000FF7F7DFF3F3EFFDFDFCFFBFEFEFF3FFF26
:10238000FFFFFFFFFFFFFFFFFFFFFFFFFFFFFFFF5D
:10239000FFFFFFFBB9FFFFF87FFF9FCFCFDBDFFF22
:1023A000FFF7EF3E7BF73F3CFFCF9FCFF3FE7CFF75
:1023B0003FFFFFFFFFFFFFFFFFFFFFFFFFFFFFFFED
:1023C000FFFFFFFFFFFBB9FFFFFBFFFF9FCFCFBB6F
:1023D000DFFFFFEFEF3E77F73F3DFFCF9FCFF7FEE9
:1023E0007CFF3FFFFFFFFFFFFFFFFFFFFFFFFFFF40
:1023F000FFFFFFFFFFFFFFFBB9FFFFFBFFFF9FE7B3
:10240000DFBBDFFFFFCFCF9CE7E7BE7DFFE73FCF1E
:10241000F7FF39FF3FFFFFFFFFFFFFFFFFFFFFFF5A
:10242000FFFFFFFFFFFFFFFFFFFBFFFFFFFBFFFFC4
:102430009FF39F7DBFFFFFC01FC1E00FC1FBFFF0F7
:102440007E01EFFF83F807FFFFFFFFFFFFFFFFFFA6
:10245000FFFFFFFFFFFFFFFFFFFFFFFBFFFFFFFB94
:10246000FFFC03F87F7E3FFFFFFFFFFFFFFFFFFB47
:10247000FFFFFFFFEFFFFFFFFFFFFFFFFFFFFFFF7C
:10248000FFFFFFFFFFFFFFFFFFFFFFFFFFFBFFFF60
:10249000FFFBFFFFFFFFFFFFFFFFFFFFFFFFFFFF50
:1024A000FFF7FFFFFFFFDFFFFFFFFFFFFFFFFFFF64
:1024B000FFFFFFFFFFFFFFFFFFFFFFFFFFFFFFFC2F
:1024C00000000003FFFFFFFFFFFFFFFFFFFFFFFF15
:1024D000FFFFFFFFFFFFFFFFFFFFFFFFFFFFFFFF0C
:1024E000FFFFFFFFFFFFFFFFFFFFFFFFFFFFFFFFFC
:1024F000FFFFFFFFFFFFFFFFFFFFFFFFFFFFFFFFEC
:10250000FFFFFFFFFFFFFFFFFFFFFFFFFFFFFFFFDB
:10295000FFC07FFFFFFF80FFFFFFFFFFFFFFFFFFC5
:10296000CFFFFFFFE00FFFFFFFFFFFFFFFFF80FF35
:10297000FFFFFFF3FFFFFFFFFFFFFFFFFFFFFFFF73
:10298000FFFFFF001FFFFFFE003FFFFFFFFFFFFFF6
:10299000FFFFCFFFFFFF8001FFFFFFFFFFFFFFFEF5
:1029A000003FFFFFFFF3FFFFFFFFFFFFFFFFFFFF02
:1029B000FFFFFFFFFC1F07FFFFF83E0FFFFFFFFFBA
:1029C000FFFFFFFF8FFFFFFE1FC0FFFFFFFFFFFFA7
:1029D000FFF83E0FFFFFFFE3FFFFFFFFFFFFFFFFDB
:1029E000FFFFFFFFFFFFF83FC3FFFFF07F87FFFF01
:1029F000FFFFFFFFFFFF0FFFFFF87FF07FFFFFFFED
:102A0000FFFFFFF07F87FFFFFFC3FFFFFFFFFFFF19
:102A1000FFFFFFFFFFFFFFFFF07FE1FFFFE0FFC3CE
:102A2000FFFFFFFFFFFFFFF80FFFFFF0FFF83FFF83
:102A3000FFFFFFFFFFE0FFC3FFFFFE03FFFFFFFFFE
:102A4000FFFFFFFFFFFFFFFFFFFFF0FFF0FFFFE1D2
:102A5000FFE1FFFFFFFFFFFFFE000FFFFFE1FFFCB5
:102A60001FFFFFFFFFFFFFE1FFE1FFFF8003FFFF0D
:102A7000FFFFFFFFFFFFFFFFFFFFFFFFE1FFF0FF93
:102A8000FFC3FFE1FFFFFFFFFFFFFE000FFFFFE3BC
:102A9000FFFE0FFFFFFFFFFFFFC3FFE1FFFF80030C
:102AA000FFFFFFFFFFFFFFFFFFFFFFFFFFFFC1FF74
:102AB000F87FFF83FFF0FFFFFFFFFFFFFFFC0FFF2B
:102AC000FFC3FFFE0FFFFFFFFFFFFF83FFF0FFFFCE
:102AD000FF03FFFFFFFFFFFFFFFFFFFFFFFFFFFF02
:102AE000C3FFF87FFF87FFF0FFFFFFFFFFFFFFFE41
:102AF0000FFFFFC3FFFE0FFFFFFFFFFFFF87FFF08A
:102B0000FFFFFF83FFFFFFFFFFFFFFFFFFFFFFFF51
:102B1000FFFF83FFFC3FFF07FFF87FFFFFFFFFFF83
:102B2000FFFE0FFFFF83FFFF07FFFFFFFFFFFF0712
:102B3000FFF87FFFFF83FFFFFFFFFFFFFFFFFFFFA8
:102B4000FFFFFFFF87FFFC3FFF0FFFF87FFFFFFF47
:102B5000FFFFFFFE0FFFFF83FFFF07FFFFFFFFFFEA
:102B6000FF0FFFF87FFFFF83FFFFFFFFFFFFFFFF68
:102B7000FFFFFFFFFFFF07FFFC1FFE0FFFF83FFFF8
:102B8000FFFFFFFFFFFE0FFFFF83FFFF07FFFFFFBA
:102B9000FFFFFE0FFFF83FFFFF83FFFFFFFFFFFF79
:102BA000FFFFFFFFFFFFFFFF07FFFE1FFE0FFFFC02
:102BB0003FFFFFFFFFFFFFFE0FFFFF81FFFF07FF4C
:102BC000FFFFFFFFFE0FFFFC3FFFFF83FFFFFFFF45
:102BD000FFFFFFFFFFFFFFFFFFFF0FFFFE1FFE1FB7
:102BE000FFFC3FFFFFFFFFFFFFFE0FFFFF80FFFF28
:102BF00007FFFFFFFFFFFE1FFFFC3FFFFF83FFFFFD
:102C0000FFFFFFFFFFFFFFFFFFFFFFFE0FFFFE0FB6
:102C1000FC1FFFFC1FFFFFFFFFFFFFFE0FFFFF80FA
:102C2000FFFF07FFFFFFFFFFFC1FFFFC1FFFFF83EE
:102C3000FFFFFFFFFFFFFFFFFFFFFFFFFFFE0FFF95
:102C4000FE0FFC1FFFFC1FFFFFFFFFFFFFFE0FFF3C
:102C5000FF80FFFF07FFFFFFFFFFFC1FFFFC1FFFC1
:102C6000FF83FFFFFFFFFFFFFFFFFFFFFFFFFFFEF1
:102C70000FFFFE0FFC1FFFFC1FFFFE1FFFFFFFFEED
:102C80000FFFFFC0FFFF07FFFFE1FFFFFC1FFFFC7F
:102C90001FFFFF83FFFFFFFFFFFFFFFFFFFFFFFFA0
:102CA000FFFE0FFFFF0FFC1FFFFE1FFFFC0FFFFFCC
:102CB000FFFE0FFFFFE1FFFE0FFFFFC0FFFFFC1F46
:102CC000FFFE1FFFFF83FFFFFFFFFFFFFFFFFFFF71
:102CD000FFFFFFFE1FFFFF0FFC3FFFFE1FFFF80778
:102CE000FFFFFFFE0FFFFFFFFFFE0FFFFF807FFFD5
:102CF000FC3FFFFE1FFFFF83FFFFFFFFFFFFFFFF04
:102D0000FFFFFFFFFFFC1FFFFF07F83FFFFE0FFF66
:102D1000F807FFFFFFFE0FFFFFFFFFFE0FFFFF8023
:102D20007FFFF83FFFFE0FFFFF83FFFFFFFFFFFF67
:102D3000FFFFFFFFFFFFFFFC1FFFFF07F83FFFFE46
:102D40000FFFF807FFFFFFFE0FFFFFFFFFFC1FFF56
:102D5000FF807FFFF83FFFFE0FFFFF83FFFFFFFFB6
:102D6000FFFFFFFFFFFFFFFFFFFC1FFFFF07F83F15
:102D7000FFFE0FFFF807FFFFFFFE0FFFFFFFFFFC47
:102D80001FFFFF807FFFF83FFFFE0FFFFF83FFFF66
:102D9000FFFFFFFFFFFFFFFFFFFFFFFC1FFFFF071E
:102DA000F83FFFFE0FFFFC0FFFFFFFFE0FFFFFFFCF
:102DB000FFF83FFFFFC0FFFFF83FFFFE0FFFFF835D
:102DC000FFFFFFFFFFFFFFFFFFFFFFFFFFFC1FFFF6
:102DD000FF07F83FFFFE0FFFFE1FFFFFFFFE0FFF85
:102DE000FFFFFFF07FFFFFE1FFFFF83FFFFE0FFF58
:102DF000FF83FFFFFFFFFFFFFFFFFFFFFFFFFFFC62
:102E00001FFFFF07F83FFFFE0FFFFFFFFFFFFFFE63
:102E10000FFFFFFFFFF07FFFFFFFFFFFF83FFFFE09
:102E20000FFFFF83FFFFFFFFFFFFFFFFFFFFFFFF1E
:102E3000FFFC1FFFFF07F83FFFFE0FFFFFFFFFFF35
:102E4000FFFE0FFFFFFFFFE0FFFFFFFFFFFFF83F69
:102E5000FFFE0FFFFF83FFFFFFFFFFFFFFFFFFFFEF
:102E6000FFFFFFFC1FFFFF07F83FFFFE0FFFFFFF05
:102E7000FFFFFFFE0FFFFFFFFFC1FFFFFFFFFFFF91
:102E8000F83FFFFE0FFFFF83FFFFFFFFFFFFFFFF86
:102E9000FFFFFFFFFFFC1FFFFF07F83FFFFE0FFFD5
:102EA000FFFFFFFFFFFE0FFFFFFFFF83FFFFFFFF9F
:102EB000FFFFF83FFFFE0FFFFF83FFFFFFFFFFFF56
:102EC000FFFFFFFFFFFFFFFC1FFFFF07F83FFFFEB5
:102ED0000FFFFFFFFFFFFFFE0FFFFFFFFF87FFFF5B
:102EE000FFFFFFFFF83FFFFE0FFFFF83FFFFFFFF26
:102EF000FFFFFFFFFFFFFFFFFFFC1FFFFF07F83F84
:102F0000FFFE0FFFFFFFFFFFFFFE0FFFFFFFFF0FA3
:102F1000FFFFFFFFFFFFF83FFFFE0FFFFF83FFFFF5
:102F2000FFFFFFFFFFFFFFFFFFFFFFFC1FFFFF078C
:102F3000F83FFFFE0FFFFFFFFFFFFFFE0FFFFFFF4A
:102F4000FE1FFFFFFFFFFFFFF83FFFFE0FFFFF83A6
:102F5000FFFFFFFFFFFFFFFFFFFFFFFFFFFC1FFF64
:102F6000FF07F83FFFFE0FFFFFFFFFFFFFFE0FFF12
:102F7000FFFFFC3FFFFFFFFFFFFFF83FFFFE0FFFDC
:102F8000FF83FFFFFFFFFFFFFFFFFFFFFFFFFFFCD0
:102F90001FFFFF07F83FFFFE0FFFFFFFFFFFFFFED2
:102FA0000FFFFFFFF87FFFFFFFFFFFFFF83FFFFE70
:102FB0000FFFFF83FFFFFFFFFFFFFFFFFFFFFFFF8D
:102FC000FFFC1FFFFF07F83FFFFE0FFFFFFFFFFFA4
:102FD000FFFE0FFFFFFFF0FFFFFFFFFFFFFFF83FC8
:102FE000FFFE0FFFFF83FFFFFFFFFFFFFFFFFFFF5E
:102FF000FFFFFFFE1FFFFF0FFC3FFFFE1FFFFFFF56
:10300000FFFFFFFE0FFFFFFFE1FFFFFFFFFFFFFFDF
:10301000FC3FFFFE1FFFFF83FFFFFFFFFFFFFFFFE0
:10302000FFFFFFFFFFFE0FFFFE0FFC1FFFFC1FFF58
:10303000FFFFFFFFFFFE0FFFFFFFC3FFFFFFFFFFCD
:10304000FFFFFC1FFFFC1FFFFF83FFFFFFFFFFFFD2
:10305000FFFFFFFFFFFFFFFE0FFFFE0FFC1FFFFC48
:103060001FFFFFFFFFFFFFFE0FFFFFFF87FFFFFFB9
:10307000FFFFFFFFFC1FFFFC1FFFFF83FFFFFFFFA2
:10308000FFFFFFFFFFFFFFFFFFFE0FFFFE0FFC1F15
:10309000FFFC1FFFFFFFFFFFFFFE0FFFFFFF0FFF04
:1030A000FFFFFFFFFFFFFC1FFFFC1FFFFF83FFFF72
:1030B000FFFFFFFFFFFFFFFFFFFFFFFE0FFFFE0F02
:1030C000FC1FFFFC1FFFFFFFFFFFFFFE0FFFFFFEC8
:1030D0001FFFFFFFFFFFFFFFFC1FFFFC1FFFFF8322
:1030E000FFFFFFFFFFFFFFFFFFFFFFFFFFFF0FFFE0
:1030F000FE1FFE1FFFFC3FFFFFFFFFFFFFFE0FFF56
:10310000FFFC3FFFFFFFFFFFFFFFFE1FFFFC3FFF36
:10311000FF83FFFFFFFFFFFFFFFFFFFFFFFFFFFF3B
:1031200007FFFE1FFE0FFFFC3FFFFFFFFFFFFFFE3D
:103130000FFFFFF87FFFF3FFFFFFFFFFFE0FFFFC16
:103140003FFFFF83FFFFFFFFFFFFFFFFFFFFFFFFCB
:10315000FFFF07FFFC1FFE0FFFF83FFFFFFFFFFF12
:10316000FFFE0FFFFFF8FFFFF3FFFFFFFFFFFE0F64
:10317000FFF83FFFFF83FFFFFFFFFFFFFFFFFFFFA2
:10318000FFFFFFFF87FFFC3FFF0FFFF87FFFFFFF01
:10319000FFFFFFFE0FFFFFF1FFFFF3FFFFFFFFFF4A
:1031A000FF0FFFF87FFFFF83FFFFFFFFFFFFFFFF22
:1031B000FFFFFFFFFFFF83FFFC3FFF07FFF87FFFDD
:1031C000FFFFFFFFFFFE0FFFFFE1FFFFE3FFFFFF3A
:1031D000FFFFFF07FFF87FFFFF83FFFFFFFFFFFFFA
:1031E000FFFFFFFFFFFFFFFFC3FFF87FFF87FFF039
:1031F000FFFFFFFFFFFFFFFE0FFFFFC3FFFFE7FF24
:10320000FFFFFFFFFF87FFF0FFFFFF83FFFFFFFFD1
:10321000FFFFFFFFFFFFFFFFFFFFC1FFF87FFF83FF
:10322000FFF0FFFFFE1FFFFFFFFE0FFFFFC7FFFFC7
:10323000C7FFFFE1FFFFFF83FFF0FFFFFF83FFFFFB
:10324000FFFFFFFFFFFFFFFFFFFFFFFFE1FFF0FFBB
:10325000FFC3FFE1FFFFFC0FFFFFFFFE0FFFFF8F2C
:10326000FFFF87FFFFC0FFFFFFC3FFE1FFFFFF83FB
:10327000FFFFFFFFFFFFFFFFFFFFFFFFFFFFF0FF6D
:10328000F0FFFFE1FFE1FFFFF807FFFFFFFE0FFF89
:10329000FF1FFFFF07FFFF807FFFFFE1FFE1FFFF51
:1032A000FF83FFFFFFFFFFFFFFFFFFFFFFFFFFFFAA
:1032B000F07FE1FFFFE0FFC3FFFFF807FFFFFFFE26
:1032C0000FFFFF00000007FFFF807FFFFFE0FFC34D
:1032D000FFFFFF83FFFFFFFFFFFFFFFFFFFFFFFF7A
:1032E000FFFFF83FC3FFFFF07F87FFFFF807FFFFF7
:1032F000FFFC07FFFF00000007FFFF807FFFFFF0DC
:103300007F87FFFFFF01FFFFFFFFFFFFFFFFFFFFC3
:10331000FFFFFFFFFC1F07FFFFF83E0FFFFFF8074F
:10332000FFFFFFF001FFFF00000007FFFF807FFFAE
:10333000FFF83E0FFFFFFC007FFFFFFFFFFFFFFFD7
:10334000FFFFFFFFFFFFFF001FFFFFFE003FFFFF2C
:10335000FC0FFFFFFE000007FF0000000FFFFFC093
:10336000FFFFFFFE003FFFFF800001FFFFFFFFFFA9
:10337000FFFFFFFFFFFFFFFFFFC07FFFFFFF80FF9B
:10338000FFFFFE1FFFFFFE000007FF0000000FFF12
:10339000FFE1FFFFFFFF80FFFFFF800001FFFFFF56
:1033A000FFFFFFFFFFFFFFFFFFFFFFFFFFFFFFFF2D
:1033B000FFFFFFFFFFFFFFFFFFFFFFFFFFFFFFFF1D
:1033C000FFFFFFFFFFFFFFFFFFFFFFFFFFFFFFFF0D
:1033D000FFFFFFFFFFFFFFFFFFFFFFFFFFFFFFFFFD
:10366000FFE000000000000000000000000000007B
:10367000000000000000000000000000000000004A
:103680000000000000000000000000000000000337
:10369000FFFFFFE00000000000000000000000004D
:1036A000000000000000000000000000000000001A
:1036B000000000000000000000000000000000000A
:1036C0000003FFFFFFE0000000000000000000001A
:1036D00000000000000000000000000000000000EA
:1036E00000000000000000000000000000000000DA
:1036F00000000003FFFFFFE00000000000000000EA
:1037000000000000000000000000000000000000B9
:1037100000000000000000000000000000000000A9
:10372000000000000003FFFFFFE0000000000000B9
:103730000000000000000000000000000000000089
:103740000000000000000000000000000000000079
:103750000000000000000003FFFFFFE00000000089
:103760000000000000000000000000000000000059
:103770000000000000000000000000000000000049
:1037800000000000000000000003FFFFFFFFFFFF3C
:10379000FFFFFFFFFFFFFFFFFFFFFFFFFFFFFFFF39
:1037A000FFFFFFFFFFFFFFFFFFFFFFFFFFFFFFFF29
:1037B000FFFFFFFFFFFFFFFFFFFFFFFFFFFFFFFF19
:1037C000FFFFFFFFFFFFFFFFFFFFFFFFFFFFFFFF09
:103B1000FFFE03C703FBE23FFFFFFFFFFFFFFFFFC7
:103B2000FFFFFFFFFFFFFFFFFFFFFFFFFFFFFFFFA5
:103B3000FFFFFFFFFFFFFFFFFFFFFFFFFFFFFFFF95
:103B4000FFFFFFFEDBBBBDFBF77FFFFFFFFFFFFFBC
:103B5000FFFFFFFFFFFFFFFFFFFFFFFFFFFFFFFF75
:103B6000FFFFFFFFFFFFFFFFFFFFFFFFFFFFFFFF65
:103B7000FFFFFFFFFFFEDB7DBEF5F77FFFFFFFFFCF
:103B8000FFFFFFFFFFFFFFFFFFFFFFFFFFFFFFFF45
:103B9000FFFFFFFFFFFFFFFFFFFFFFFFFFFFFFFF35
:103BA000FFFFFFFFFFFFFFFFDF7DBEF5FAFFFFFF17
:103BB000FFFFFFFFFFFFFFFFFFFFFFFFFFFFFFFF15
:103BC000FFFFFFFFFFFFFFFFFFFFFFFFFFFFFFFF05
:103BD000FFFFFFFFFFFFFFFFFFFFDF7DBEF5FAFFE7
:103BE000FFFFFFFFFFFFFFFFFFFFFFFFFFFFFFFFE5
:103BF000FFFFFFFFFFFFFFFFFFFFFFFFFFFFFFFFD5
:103C0000FFFFFFFFFFFFFFFFFFFFFFFFDF7DBEEEB8
:103C1000FDFFFFFFFFFFFFFFFFFFFFFFFFFFFFFFB6
:103C2000FFFFFFFFFFFFFFFFFFFFFFFFFFFFFFFFA4
:103C3000FFFFFFFFFFFFFFFFFFFFFFFFFFFFDF7D36
:103C4000BEE0FDFFFFFFFFFFFFFFFFFFFFFFFFFFE6
:103C5000FFFFFFFFFFFFFFFFFFFFFFFFFFFFFFFF74
:103C6000FFFFFFFFFFFFFFFFFFFFFFFFFFFFFFFF64
:103C7000DF7DBEEEFDFFFFFFFFFFFFFFFFFFFFFF4A
:103C8000FFFFFFFFFFFFFFFFFFFFFFFFFFFFFFFF44
:103C9000FFFFFFFFFFFFFFFFFFFFFFFFFFFFFFFF34
:103CA000FFFFDF7DBEDF7DFFFFFFFFFFFFFFFFFFA9
:103CB000FFFFFFFFFFFFFFFFFFFFFFFFFFFFFFFF14
:103CC000FFFFFFFFFFFFFFFFFFFFFFFFFFFFFFFF04
:103CD000FFFFFFFFDFBBBDDF7DFFFFFFFFFFFFFF3C
:103CE000FFFFFFFFFFFFFFFFFFFFFFFFFFFFFFFFE4
:103CF000FFFFFFFFFFFFFFFFFFFFFFFFFFFFFFFFD4
:103D0000FFFFFFFFFFFF8FC7038E38FFFFFFFFFF9F
:103D1000FFFFFFFFFFFFFFFFFFFFFFFFFFFFFFFFB3
:103D2000FFFFFFFFFFFFFFFFFFFFFFFFFFFFFFFFA3
:103D3000FFFFFFFFFFFFFFFFFFFFFFFFFFFFFFFF93
:103D4000FFFFFFFFFFFFFFFFFFFFFFFFFFFFFFFF83
:103D5000FFFFFFFFFFFFFFFFFFFFFFFFFFFFFFFF73
:103D6000FFFFFFFFFFFFFFFFFFFFFFFFFFFFFFFF63
:103D7000FFFFFFFFFFFFFFFFFFFFFFFFFFFFFFFC56
:103D80003FFFFFFFFFFFFFFFFFFFFFFFFFFFFFFF03
:103D9000FFFFFFFFFFFFFFFFFFFFFFFFFFFFFFFF33
:103DA000FFFFFFFFFFFFFFFFFFFFFFFFFFFFFFFF23
:103DB000FFF80FFFFFFFFFFFFFFFFFFFFFFFFFFF0A
:103DC000FFFFFFFFFFFFFFFFFFFFFFFFFFFFFFFF03
:103DD000FFFFFFFFFFF9FFFFFFFFFFFFFFFFFFFFF9
:103DE000FFFFFFF387FBFFFFFFFFFFFFFFFFFFFF6B
:103DF000FFFFFFFFFFFFFFFFFFFFFFFFFFFFFFFFD3
:103E0000FFFFFFFFFFFFFFF9FFFFFFFFFFFFFFFFC8
:103E1000FFFFFFFFFFF7C3FBFFFFFFFFFFFFFFFFFA
:103E2000FFFFFFFFFFFFFFFFFFFFFFFFFFFFFFFFA2
:103E3000FFFFFFFFFFFFFFFFFFF9FFFFFFFFFFFF98
:103E4000FFFFFFFFFFFFFFEFE1F7FFFFFFFFFFFFB8
:103E5000FFFFFFFFFFFFFFFFFFFFFFFFFFFFFFFF72
:103E6000FFFFFFFFFFFFFFFFFFFFFFF9FFFFFFFF68
:103E7000FFFFFFFFF83FFE7FFFEFF0E7FFFFFFFFD1
:103E8000FFFE0FFF9FFFFFFFFFFFFFFFFFFFFFFF93
:103E9000FFFFFFFFFFFFFFFFFFFFFFFFFFF9FFFF38
:103EA000FFFFFFFFFFFFF3BFE007FFFFF80FFFFF7C
:103EB000FFFFFFFCEFF801FFFFFFFEFE1F87F78EFD
:103EC0003FFFFFFFFFFFFFFFFFFFFFFFFFFF9FF928
:103ED000FF9FFFFEFFFFC1FFE79F83F1FFFFFE1F74
:103EE000FC0FFF0003F9E7E0FC7FFFFFF8FDEF7B2D
:103EF000C7DF7FFFFFFFFFFFFFFFFFFFFFFFFFFFAA
:103F00008FFFFF1FFFFCFFFF3E7FE79F1FFC4FFF60
:103F1000FFFFF3E3FF0003F9E7C7FF13FFFFFEFD19
:103F2000EF7BF7DF7FFFFFFFFFFFFFFFFFFFFFFFDD
:103F3000FFFFC7FFFE3FFFF8FFFCFE7FE79E3FFF4E
:103F40000FFFFFFFEFF1FF0003F9E78FFFC3FFFF54
:103F5000FEFBF6FDF7DF7FFFFFFFFFFFFFFFFFFF29
:103F6000FFFFFFFFE3C03C7FFF00FFF9FE3FE7BC20
:103F70007FFF8FFFFFFFDFF8FF7FFFF9EF1FFFE3FA
:103F8000FFFFFEFBF6FDF7DF647C1FFFFFFFFFFF77
:103F9000FFFFFFFFFFFFF3000CFFFFF8FFF9FE3FFD
:103FA000F03C7FFF8FFFFFFFDFFC7F7FFFFC0F1FD9
:103FB000FFE3FFFFFEFBF6FDF7DF73BBEFFFFFFF45
:103FC000FFFFFFFFFFFFFFFFFE0F87FFFFF8FFF37D
:103FD000FE3FFFF8FFFFCFFFFFFF9FFC7F7FFFFF4C
:103FE000FE3FFFF3FFFFFEFBF6FDF7C077DBEFFFC1
:103FF000FFFFFFFFFFFFFFFFFFFFFC3FE3FFFFF8B7
:10400000FFF3FFFFFFF9FFFFCFFFFFFF9FFC7F7F65
:10401000FFFFFE7FFFF3FFFFFEFBF6FDF7DF77DF1D
:104020008FFFFFFFFFFFFFFFFFFFFFFFF8FFF1FF25
:10403000FFF8FFE3FFFFFFF1FFFFCFFFFFFF8FFC64
:104040007E7FFFFFFC7FFFF3FFFFFEFBF6FDF7DF48
:1040500077DC6FFFFFFFFFFFFFFFFFFFFFFFF8FFB2
:10406000F9FFFFF8FFE7FFFFFFF1FFFFCFFFFFFFC3
:104070008FFC7E7FFFFFFC7FFFF3FFFFFEFBF6FD63
:10408000F7DF77DBEFFFFFFFFFFFFFFFFFFFFFFF24
:10409000F1FC08FFFFF8FFE7FFFFFFF1FFFFCFFF95
:1040A000FFFFCFFC7E7FFFFFFC7FFFF3FFFFFEFDE6
:1040B000EF7BF7DF77DBEFFFFFFFFFFFFFFFFFFF88
:1040C000FFFFF1E000FFFFF8FFC7FFFFFFE3FFFF87
:1040D000FFFFFFFFFFF8FE707FFFF8FFFFFFFFFF0E
:1040E000FEFDEF7BF7DF73BBCBFFFFFFFFFFFFFFA3
:1040F000FFFFFFFFF3C1C0FFFFF8FFC781FFFFE332
:10410000FFFFFFFFFFFFFFF8FE401FFFF8FFFFFF6D
:10411000FFFFF83E1F87C18E347C23FFFFFFFFFFA8
:10412000FFFFFFFFFFF03387F840FFF8FFC6007F77
:10413000FFE3FFFFFFFFFFFFFFF1FE9F0FFFF8FF11
:10414000FFFFFFFFFFFFFFFFFFFFF7FFFFFFFFFF87
:10415000FFFFFFFFFFFFFFF0331FFC40FFF8FFC42E
:104160007C3FFFE3FFFFFFFFFFFFFFF1FEBF87FF85
:10417000F8FFFFFFFFFFFFFFFFFFFFFFE3FFFFFF72
:10418000FFFFFFFFFFFFFFFFFFFFE03FFE3FFFF8E6
:10419000FFC4FE1FFFE3FFFFFFFFFFFFFFE3FE7F04
:1041A000C7FFF8FFFFFFFFFFFFFFFFFFFFFFFFFF5E
:1041B000FFFFFFFFFFFFFFFFFFFFFFFFC03FFF3FCE
:1041C000FFF8FFC1FF1FFFE3FFFFFFFFFFFFFFC778
:1041D000FE7FC7FFF8FFFFFFFFFFFFFFFFFFFFFFAF
:1041E000FFFFFFFFFFFFFFFFFFFFFFFFFFFF8E7FD0
:1041F000FF1FFFF8FFC3FF1FFFE3FFFFFFFFFFFFEE
:10420000FF8FFFFFE3FFF8FFFFFFFFFFFFFFFFFF51
:10421000FFFFFFFFFFFFFFFFFFFFFFFFFFFFFFFFAE
:104220009FFFFF1FFFF8FFC7FF8FFFE1FFFFFFFFAB
:10423000FFFFFF1FFFFFE3FFF87FFFFFFFFFFFFF11
:10424000FFFFFFFFFFFFFFFFFFFFFFFFFFFFFFFF7E
:10425000FFFF1FFFFF0FFFF8FFC7FF8FFFF1FFFFFB
:10426000FFFFFFFFFE3FFFFFE3FFFC7FFFFFFFFFBE
:10427000FFFFFFFFFFFFFFFFFFFFFFFFFFFFFFFF4E
:10428000FFFFFFFE1FFFFF83FFF8FFC7FF8FFFF158
:10429000FFFFFFFFFFFFFC7FFFFFE3FFFC7FFFFF50
:1042A000FFFFFFFFFFFFFFFFFFFFFFFFFFFFFFFF1E
:1042B000FFFFFFFFFFFC3FFFFFC1FFF8FFC7FF8FBE
:1042C000FFF1FFFFFFFFFFFFF8FFFFFFE3FFFC7FB2
:1042D000FFFFFFFFFFFFFFFFFFFFFFFFFFFFFFFFEE
:1042E000FFFFFFFFFFFFFFF8FFFFFFF1FFF8FFC732
:1042F000FF8FFFF0FFFFFFFFFFFFF1FFFE7FE3FFF8
:10430000FC3FFFFFFFFFFFFFFFFFFFFFFFFFFFFF80
:10431000FFFFFFFFFFFFFFFFFFF1FFFFFFF8FFF8C9
:10432000FFE7FF8FFFF8FFFFEFFFFFFFE3FF7C7F5B
:10433000E3FFFE3FFFFBFFFFFFFFFFFFFFFFFFFF6E
:10434000FFFFFFFFFFFFFFFFFFFFFFF1FFFFFFFC8E
:10435000FFF8FFE3FF8FFFF87FFFDFFFFFFFE7FFBF
:104360007C7FE3FFFE1FFFF7FFFFFFFFFFFFFFFF65
:10437000FFFFFFFFFFFFFFFFFFFFFFFFFFF3FFFF59
:10438000FFFCFFF8FFE3FF9FFFFC7FFFBFFFFFFF86
:10439000CFFE7C7FC7FFFF1FFFEFFFFFFFFFFFFF89
:1043A000FFFFFFFFFFFFFFFFFFFFFFFFFFFFFFF329
:1043B000FFFFFFFCFFF8FFF3FF1FFFFE3FFE3FFF85
:1043C000FFFF9FFE7CFFC7FFFF8FFF8FFFFFFFFFF9
:1043D000FFFFFFFFFFFFFFFFFFFFFFFFFFFFFFFFED
:1043E000FFF1FFFFFFFCFFF8FFF1FF3FFFFF1FFCA6
:1043F000FFFFFFFF3FFCFEFFCFFFFFC7FF3FFFFFB9
:10440000FFFFFFFFFFFFFFFFFFFFFFFFFFFFFFFFBC
:10441000FFFFFFF1FFFFFFF8FFF8FFF8FE7FFFFF50
:1044200083E1FFFFFFFF0000FF7F8FFFFFE0F87FCA
:10443000FFFFFFFFFFFFFFFFFFFFFFFFFFFFFFFF8C
:10444000FFFFFFFFFFF8FFFFFFF1FFF07FFC7CFFA6
:10445000FFFFC007FFFFFFFF0000FFBF1FFFFFF0D0
:1044600001FFFFFFFFFFFFFFFFFFFFFFFFFFFFFF5A
:10447000FFFFFFFFFFFFFFFC00000003FF0007FF3F
:1044800003FFFFFFF81FFFFFFFFF0000FFC07FFFDC
:10449000FFFE07FFFFFFFFFFFFFFFFFFFFFFFFFF25
:1044A000FFFFFFFFFFFFFFFFFFFE00000007FFFF12
:1044B000FFFFFFFFFFFFFFFFFFFFFFFFFFFFFFFF0C
:1044C000FFFFFFFFFFFFFFFFFFFFFFFFFFFFFFFFFC
:1044D000FFFFFFFFFFFFFFFFFFFFFFFFFFFFFFFFEC
:1044E000FFFFFFFFFFFFFFFFFFFFFFFFFFFFFFFFDC
:10482000FFFFFFFFFFFF000000000000000000008E
:104830000000000000000000000000000000000078
:104840000000000000000000000000000000000068
:104850000000000000000000FFFFFFFFFFFFFFFF60
:10486000FFFFFFFFFFFFFFFFFFFFFFFFFFFFFFFF58
:10487000FFFFFFFFFFFFFFFFFFFFFFFFFFFFFFFF48
:10488000FFFFFFFFFFFFFFFFFFFFFFFFFFFFFFFF38
:10489000FFFFFFFFFFFFFFFFFFFFFFFFFFFFFFFF28
:104AB000FFFE03C71C71C0E07E3913FFFFFFFFFF3D
:104AC000FFFFFFFFFFFFFFFFFFFFFFFFFFFFFFFFF6
:104AD000FFFFFFFFFFFFFFFFFFFFFFFFFFFFFFFFE6
:104AE000FFFFFFFEDBBB9CEEEF77BDDDB7FFFFFFF7
:104AF000FFFFFFFFFFFFFFFFFFFFFFFFFFFFFFFFC6
:104B0000FFFFFFFFFFFFFFFFFFFFFFFFFFFFFFFFB5
:104B1000FFFFFFFFFFFEDB7D9CDF6F77BBEDB7FF85
:104B2000FFFFFFFFFFFFFFFFFFFFFFFFFFFFFFFF95
:104B3000FFFFFFFFFFFFFFFFFFFFFFFFFFFFFFFF85
:104B4000FFFFFFFFFFFFFFFFDF7D9CDF6F77BBED08
:104B5000B7FFFFFFFFFFFFFFFFFFFFFFFFFFFFFFAD
:104B6000FFFFFFFFFFFFFFFFFFFFFFFFFFFFFFFF55
:104B7000FFFFFFFFFFFFFFFFFFFFDF7DAADF60F00A
:104B80007BEDB7FFFFFFFFFFFFFFFFFFFFFFFFFF13
:104B9000FFFFFFFFFFFFFFFFFFFFFFFFFFFFFFFF25
:104BA000FFFFFFFFFFFFFFFFFFFFFFFFDF7DAADF2C
:104BB0006DF6FBED57FFFFFFFFFFFFFFFFFFFFFF5E
:104BC000FFFFFFFFFFFFFFFFFFFFFFFFFFFFFFFFF5
:104BD000FFFFFFFFFFFFFFFFFFFFFFFFFFFFDF7D87
:104BE000AADF6DF6FBED57FFFFFFFFFFFFFFFFFFA3
:104BF000FFFFFFFFFFFFFFFFFFFFFFFFFFFFFFFFC5
:104C0000FFFFFFFFFFFFFFFFFFFFFFFFFFFFFFFFB4
:104C1000DF7DB6DF6EF77BED57FFFFFFFFFFFFFF86
:104C2000FFFFFFFFFFFFFFFFFFFFFFFFFFFFFFFF94
:104C3000FFFFFFFFFFFFFFFFFFFFFFFFFFFFFFFF84
:104C4000FFFFDF7DB6DF6EF77BEEEFFFFFFFFFFFBD
:104C5000FFFFFFFFFFFFFFFFFFFFFFFFFFFFFFFF64
:104C6000FFFFFFFFFFFFFFFFFFFFFFFFFFFFFFFF54
:104C7000FFFFFFFFDFBBB6EEEF77BDDEEFFFFFFF0D
:104C8000FFFFFFFFFFFFFFFFFFFFFFFFFFFFFFFF34
:104C9000FFFFFFFFFFFFFFFFFFFFFFFFFFFFFFFF24
:104CA000FFFFFFFFFFFF8FC71471C7239E3EEFFF7B
:104CB000FFFFFFFFFFFFFFFFFFFFFFFFFFFFFFFF04
:104CC000FFFFFFFFFFFFFFFFFFFFFFFFFFFFFFFFF4
:104CD000FFFFFFFFFFFFFFFFFFFFFFFFFFFFFFFFE4
:104CE000FFFFFFFFFFFFFFFFFFFFFFFFFFFFFFFFD4
:104CF000FFFFFFFFFFFFFFFFFFFFFFFFFFFFFFFFC4
:104D0000FFFFFFFFFFFFFFFFFFFFFFFFFFFFFFFFB3
:104D1000FFFFFFFFFFFFFFFFFFFFFFFFFFFFFFFFA3
:104D2000FFFFFFFFFFFFFFFFFFFFFFFFFFFFFFFF93
:104D3000FFFFFFFFFFFFFFFFFFFFFFFFFFFFFFFF83
:104D4000FFFFFFFFFFFFFFFFFFFFFFFFFFFFFFFF73
:104D5000FFFC3FFFFFFFFFFFFFFFFFFFFFFFFFFF26
:104D6000FFFFFFFFFFFFFFFFFFFFFFFFFFFFFFFF53
:104D7000FFFFFFFFFFFFFFFFFFFFFFFFFFFFFFFF43
:104D8000FFFFFFF80FFFFFFFFFFFFFFFFFFFFFFF2A
:104D9000FFFFFFFFFFFFFFFFFFFFFFFFFFFFFFFF23
:104DA000FFFFFFFFFFFFFFFFFFFFFFFFFFFFFFFF13
:104DB000FFFFFFFFFFF387FBFFFFFFFFFFFFFFFF8B
:104DC000FFFFFFFFFFFFFFFFFFFFFFFFFFFFFFFFF3
:104DD000FFFFFFFFFFFFFFFFFFFFFFFFFFFFFFFFE3
:104DE000FFFFFFFFFFFFFFF7C3FBFFFFFFFFFFFF1B
:104DF000FFFFFFFFFFFFFFFFFFFFFFFFFFFFFFFFC3
:104E0000FFFFFFFFFFFFFFFFFFFFFFFFFFFFFFFFB2
:104E1000FFFFFFFFFFFFFFFFFFEFE1F7FFFFFFFFD8
:104E2000FFFFFFFFFFFFFFFFFFFFFFFFFFFFFFFF92
:104E3000FFFFFFFFFFFFFFFFFFFFFFFFFFFFFFFF82
:104E4000FFFFFFFFFFFFF83FFE7FFFEFF0E7FFFFF1
:104E5000FFFFFFFE0FFF9FFFFFFFFF7F0FF7C3C79F
:104E60001FFFFFFFFFFFFFFFFFFFFFFFFFFFFFFF32
:104E7000FFFFFFFFFFFFFFFFF3BFE007FFFFF80F9C
:104E8000FFFFFFFFFFFCEFF801FFFFFFFC7EF7C70E
:104E9000BDEFBFFFFFFFFFFFFFFFFFFFFFFFFFFFB4
:104EA000FFFC0FFFFFFEFFFF03FFE79F83F1FFFF04
:104EB000FE1FFC0FFFFEFFF9E7E0FC7FFFFFFF7E18
:104EC000F7F7BEEFBFFFFFFFFFFFFFFFFFFFFFFF93
:104ED000FFFFFFF001FFFFFCFFFCF1FFE79F1FFC5E
:104EE0004FFFFFFFF3E3FFFCFFF9E7C7FF13FFFFEF
:104EF000FF7DFBF7BEEFBFFFFFFFFFFFFFFFFFFFE1
:104F0000FFFFFFFFFFE3E0FFFFF8FFF9FCFFE79E75
:104F10003FFF0FFFFFFFEFF1FFF8FFF9E78FFFC340
:104F2000FFFFFF7DFBF7FEEFB23E0FFFFFFFFFFF2E
:104F3000FFFFFFFFFFFFFFC7FC7FFF00FFF3FC7FCA
:104F4000E7BC7FFF8FFFFFFFDFF8FF00FFF9EF1FD8
:104F5000FFE3FFFFFF7DFBF7FDEFB9DDF7FFFFFF8D
:104F6000FFFFFFFFFFFFFFFFFF8FFE3FFFF8FFF395
:104F7000FE3FF03C7FFF8FFFFFFFDFFC7FF8FFFC71
:104F80000F1FFFE3FFFFFF7DFBF7F1E03BEDF7FFB6
:104F9000FFFFFFFFFFFFFFFFFFFFFC1FFF1FFFF8EB
:104FA000FFF1FE3FFFF8FFFFCFFFFFFF9FFC7FF801
:104FB000FFFFFE3FFFF3FFFFFF7DFBF7FEEFBBEFC1
:104FC000C7FFFFFFFFFFFFFFFFFFFFFFE03FFF9F68
:104FD000FFF8FFF1FE3FFFF9FFFFCFFFFFFF9FFC50
:104FE0007FF8FFFFFE7FFFF3FFFFFF7DFBF7FF6F03
:104FF000BBEE37FFFFFFFFFFFFFFFFFFFFFFC0FF1D
:10500000FF8FFFF8FFF9FE3FFFF1FFFFCFFFFFFF2C
:105010008FFC7FF8FFFFFC7FFFF3FFFFFF7DFBF7B7
:10502000BF6FBBEDF7FFFFFFFFFFFFFFFFFFFFFFBE
:10503000CFFFFFCFFFF8FFFFFE3FFFF1FFFFCFFFE6
:10504000FFFF8FFC7FF8FFFFFC7FFFF3FFFFFF7E7A
:10505000F7F7BF6FBBEDF7FFFFFFFFFFFFFFFFFF9E
:10506000FFFF8FFFFFC7FFF8FFFFFE7FFFF1FFFF8E
:10507000CFFFFFFFCFFC7FF8FFFFFC7FFFF3FFFFB9
:10508000FF7EF7F7BEEFB9DDE5FFFFFFFFFFFFFF94
:10509000FFFFFFFF0FFFFFE1FFF8FFFFFC7FFFE3D4
:1050A000FFFFFFFFFFFFFFF8FFF8FFFFF8FFFFFF25
:1050B000FFFFFC1F0FC1C1C71A3E11FFFFFFFFFF1B
:1050C000FFFFFFFFFFFE1FFFFFF0FFF8FFFFF8FFEE
:1050D000FFE3FFFFFFFFFFFFFFF8FFF8FFFFF8FF11
:1050E000FFFFFFFFFFFFFFFFFFFFFBFFFFFFFFFFD4
:1050F000FFFFFFFFFFFFFFFC7FFFFFF8FFF8FFFF51
:10510000F1FFFFE3FFFFFFFFFFFFFFF1FFF8FFFFEE
:10511000F8FFFFFFFFFFFFFFFFFFFFFFF1FFFFFFB4
:10512000FFFFFFFFFFFFFFFFFFF8FFFFFFFC7FF820
:10513000FFFF87FFFFE3FFFFFFFFFFFFFFF1FFF828
:10514000FFFFF8FFFFFFFFFFFFFFFFFFFFFFFFFF76
:10515000FFFFFFFFFFFFFFFFFFFFFFF8FFFFFFFE67
:105160007FF8FFFFF1FFFFE3FFFFFFFFFFFFFFE31C
:10517000FFF8FFFFF8FFFFFFFFFFFFFFFFFFFFFF4D
:10518000FFFFFFFFFFFFFFFFFFFFFFFFFFF9FFFF35
:10519000FFFE7FF8FFFFFC7FFFE3FFFFFFFFFFFF46
:1051A000FFC7FFF8FFFFF8FFFFFFFFFFFFFFFFFF55
:1051B000FFFFFFFFFFFFFFFFFFFFFFFFFFFFFFF905
:1051C000FFFFFFFE7FF8FFFFFE7FFFE3FFFFFFFF14
:1051D000FFFFFF8FFFF8FFFFF8FFFFFFFFFFFFFF5D
:1051E000FFFFFFFFFFFFFFFFFFFFFFFFFFFFFFFFCF
:1051F000FFF8FFFFFFFE7FF8FFFFFE3FFFE1FFFF2D
:10520000FFFFFFFFFF1FFFF8FFFFF87FFFFFFFFF1C
:10521000FFFFFFFFFFFFFFFFFFFFFFFFFFFFFFFF9E
:10522000FFFFFFF8FFFFFFFC7FF8FFFFFF3FFFF1ED
:10523000FFFFFFFFFFFFFE3FFFF8FFFFFC7FFFFFC9
:10524000FFFFFFFFFFFFFFFFFFFFFFFFFFFFFFFF6E
:10525000FFFFFFFFFFFC7FFFFFF8FFF8FFFFFF1FCF
:10526000FFF1FFFFFFFFFFFFFC7FFFF8FFFFFC7F69
:10527000FFFFFFFFFFFFFFFFFFFFFFFFFFFFFFFF3E
:10528000FFFFFFFFFFFFFFFE00000001FFF8FFFF31
:10529000FF1FFFF1FFFFFFFFFFFFF8FFFFF8FFFF1A
:1052A000FC7FFFFFFFFFFFFFFFFFFFFFFFFFFFFF91
:1052B000FFFFFFFFFFFFFFFFFFFF00000003FFF8FE
:1052C000FFFFFF1FFFF0FFFFFFFFFFFFF1FFFFF8F2
:1052D000FFFFFC3FFFFFFFFFFFFFFFFFFFFFFFFFA1
:1052E000FFFFFFFFFFFFFFFFFFFFFFFFFFFFFFFFCE
:1052F000FFF8FFF3FF1FFFF8FFFFEFFFFFFFE3FFE4
:105300007FF8FFFFFE3FFFFBFFFFFFFFFFFFFFFFF9
:10531000FFFFFFFFFFFFFFFFFFFFFFFFFFFF6B7FB1
:10532000BFB7FFF8FFE3FF1FFFF87FFFDFFFFFFFBF
:10533000E7FF7FF8FFFFFE1FFFF7FFFFFFFFFFFF05
:10534000FFFFFFFFFFFFFFFFFFFFFFFFFFFFFFFF6D
:105350006B6DB6B7FFF8FFE3FF3FFFFC7FFFBFFFBA
:10536000FFFFCFFE7FF8FFFFFF1FFFEFFFFFFFFFF5
:10537000FFFFFFFFFFFFFFFFFFFFFFFFFFFFFFFF3D
:10538000FFFF6F6DB6B7FFF8FFE3FE3FFFFE3FFE86
:105390003FFFFFFF9FFE7FF8FFFFFF8FFF8FFFFFA5
:1053A000FFFFFFFFFFFFFFFFFFFFFFFFFFFFFFFF0D
:1053B000FFFFFFFF6F6DB6F7FFF8FFF7FE7FFFFF00
:1053C0001FFCFFFFFFFF3FFCFFF8FFFFFFC7FF3F92
:1053D000FFFFFFFFFFFFFFFFFFFFFFFFFFFFFFFFDD
:1053E000FFFFFFFFFFFF6F6DF6F7FFF8FFF3FC7F96
:1053F000FFFF83E1FFFFFFFF0000FFF8FFFFFFE07B
:10540000F87FFFFFFFFFFFFFFFFFFFFFFFFFFFFF33
:10541000FFFFFFFFFFFFFFFFEB7DF6B7FFF07FF918
:10542000F0FFFFFFC007FFFFFFFF0000FFF07FFF5F
:10543000FFF001FFFFFFFFFFFFFFFFFFFFFFFFFF89
:10544000FFFFFFFFFFFFFFFFFFFFFB7DB6B7FF0082
:1054500007FE03FFFFFFF81FFFFFFFFF0000FF0035
:1054600007FFFFFE07FFFFFFFFFFFFFFFFFFFFFF3D
:10547000FFFFFFFFFFFFFFFFFFFFFFFFFB6DB6B763
:10548000FFFFFFFFFFFFFFFFFFFFFFFFFFFFFFFF2C
:10549000FFFFFFFFFFFFFFFFFFFFFFFFFFFFFFFF1C
:1054A000FFFFFFFFFFFFFFFFFFFFFFFFFFFFFBED22
:1054B000B6BFFFFFFFFFFFFFFFFFFFFFFFFFFFFF85
:1054C000FFFFFFFFFFFFFFFFFFFFFFFFFFFFFFFFEC
:1054D000FFFFFFFFFFFFFFFFFFFFFFFFFFFFFFFFDC
:1054E000FFEDB7BFFFFFFFFFFFFFFFFFFFFFFFFF66
:1054F000FFFFFFFFFFFFFFFFFFFFFFFFFFFFFFFFBC
:10550000FFFFFFFFFFFFFFFFFFFFFFFFFFFFFFFFAB
:10551000FFFFFFFFFFFFFFFFFFFFFFFFFFFFFFFF9B
:10552000FFFFFFFFFFFFFFFFFFFFFFFFFFFFFFFF8B
:105C1000FFFFFFFFFFFFFFFFFFFFF8000000000096
:105C20000000000001FFF0000003FFFFFFFFFFFF87
:105C3000FFFFFFFFFFFFFFFFFFFFFFFFFFFFFFFF74
:105C4000FFFFFFFFFFFFFFFFF80000000000000064
:105C5000000001FFF0000003FFFFFFFFFFFFFFFF59
:105C6000FFFFFFFFFFFFFFFFFFFFFFFFFFFFFFFF44
:105C7000FFFFFFFFFFFFF800000000000000000032
:105C800001FFF0000003FFFFFFFFFFFFFFFFFFFF2B
:105C9000FFFFFFFFFFFFFFFFFFFFFFFFFFFFFFFF14
:105CA000FFFFFFFFF800000000000000000001FF00
:105CB000F0000003FFFFFFFFFFFFFFFFFFFFFFFFFD
:105CC000FFFFFFFFFFFFFFFFFFFFFFFFFFFFFFFFE4
:105CD000FFFFF800000000000000000001FFF000DE
:105CE0000003FFFFFFFFFFFFFFFFFFFFFFFFFFFFBF
:105CF000FFFFFFFFFFFFFFFFFFFFFFFFFFFFFFFFB4
:105D0000F800000000000000000001FFF0000003A8
:105D1000FFFFFFFFFFFFFFFFFFFFFFFFFFFFFFFF93
:105D2000FFFFFFFFFFFFFFFFFFFFFFFFFFFFF80089
:105D3000000000000000000001FFF0000003FFFF72
:105D4000FFFFFFFFFFFFFFFFFFFFFFFFFFFFFFFF63
:105D5000FFFFFFFFFFFFFFFFFFFFFFFFF800000057
:105D600000000000000001FFF0000003FFFFFFFF44
:105D7000FFFFFFFFFFFFFFFFFFFFFFFFFFFFFFFF33
:105D8000FFFFFFFFFFFFFFFFFFFFF8000000000025
:105D90000000000001FFF0000003FFFFFFFFFFFF16
:105DA000FFFFFFFFFFFFFFFFFFFFFFFFFFFFFFFF03
:105DB000FFFFFFFFFFFFFFFFF800000000000000F3
:105DC000000001FFF0000003FFFFFFFFFFFFFFFFE8
:105DD000FFFFFFFFFFFFFFFFFFFFFFFFFFFFFFFFD3
:105DE000FFFFFFFFFFFFF8000000000000000000C1
:105DF00001FFF0000003FFFFFFFFFFFFFFFFFFFFBA
:105E0000FFFFFFFFFFFFFFFFFFFFFFFFFFFFFFFFA2
:105E1000FFFFFFFFF800000000000000000001FF8E
:105E2000F0000003FFFFFFFFFFFFFFFFFFFFFFFF8B
:105E3000FFFFFFFFFFFFFFFFFFFFFFFFFFFFFFFF72
:105E4000FFFFF800000000000000000001FFF0006C
:105E50000003FFFFFFFFFFFFFFFFFFFFFFFFFFFF4D
:105E6000FFFFFFFFFFFFFFFFFFFFFFFFFFFFFFFF42
:105E7000F800000000000000000001FFF000000337
:105E8000FFFFFFFFFFFFFFFFFFFFFFFFFFFFFFFF22
:105E9000FFFFFFFFFFFFFFFFFFFFFFFFFFFFF80018
:105EA000000000000000000001FFF0000003FFFF01
:105EB000FFFFFFFFFFFFFFFFFFFFFFFFFFFFFFFFF2
:105EC000FFFFFFFFFFFFFFFFFFFFFFFFF8000000E6
:105ED00000000000000001FFF0000003FFFFFFFFD3
:105EE000FFFFFFFFFFFFFFFFFFFFFFFFFFFFFFFFC2
:105EF000FFFFFFFFFFFFFFFFFFFFF80000000000B4
:105F00000000000001FFF0000003FFFFFFFFFFFFA4
:105F1000FFFFFFFFFFFFFFFFFFFFFFFFFFFFFFFF91
:105F2000FFFFFFFFFFFFFFFFF80000000000000081
:105F3000000001FFF0000003FFFFFFFFFFFFFFFF76
:105F4000FFFFFFFFFFFFFFFFFFFFFFFFFFFFFFFF61
:105F5000FFFFFFFFFFFFF80000000000000000004F
:105F600001FFF0000003FFFFFFFFFFFFFFFFFFFF48
:105F7000FFFFFFFFFFFFFFFFFFFFFFFFFFFFFFFF31
:105F8000FFFFFFFFF800000000000000000001FF1D
:105F9000F0000003FFFFFFFFFFFFFFFFFFFFFFFF1A
:105FA000FFFFFFFFFFFFFFFFFFFFFFFFFFFFFFFF01
:105FB000FFFFF800000000000000000001FFF000FB
:105FC0000003FFFFFFFFFFFFFFFFFFFFFFFFFFFFDC
:105FD000FFFFFFFFFFFFFFFFFFFFFFFFFFFFFFFFD1
:105FE000F800000000000000000001FFF0000003C6
:105FF000FFFFFFFFFFFFFFFFFFFFFFFFFFFFFFFFB1
:10600000FFFFFFFFFFFFFFFFFFFFFFFFFFFFF800A6
:10601000000000000000000001FFF0000003FFFF8F
:10602000FFFFFFFFFFFFFFFFFFFFFFFFFFFFFFFF80
:10603000FFFFFFFFFFFFFFFFFFFFFFFFF800000074
:1060400000000000000001FFF0000003FFFFFFFF61
:10605000FFFFFFFFFFFFFFFFFFFFFFFFFFFFFFFF50
:10606000FFFFFFFFFFFFFFFFFFFFF8000000000042
:106070000000000001FFF0000003FFFFFFFFFFFF33
:10608000FFFFFFFFFFFFFFFFFFFFFFFFFFFFFFFF20
:10609000FFFFFFFFFFFFFFFFF80000000000000010
:1060A000000001FFF0000003FFFFFFFFFFFFFFFF05
:1060B000FFFFFFFFFFFFFFFFFFFFFFFFFFFFFFFFF0
:1060C000FFFFFFFFFFFFF8000000000000000000DE
:1060D00001FFF0000003FFFFFFFFFFFFFFFFFFFFD7
:1060E000FFFFFFFFFFFFFFFFFFFFFFFFFFFFFFFFC0
:1060F000FFFFFFFFF8000000FFFFFFFC000001FFB3
:10610000FFFFFFFFFFFFFFFFFFFFFFFFFFFFFFFF9F
:10611000FFFFFFFFFFFFFFFFFFFFFFFFFFFFFFFF8F
:10612000FFFFF8000000FFFFFFFC000001FFFFFF82
:10613000FFFFFFFFFFFFFFFFFFFFFFFFFFFFFFFF6F
:10614000FFFFFFFFFFFFFFFFFFFFFFFFFFFFFFFF5F
:10615000F8000000FFFFFFFC000001FFFFFFFFFF52
:10616000FFFFFFFFFFFFFFFFFFFFFFFFFFFFFFFF3F
:10617000FFFFFFFFFFFFFFFFFFFFFFFFFFFFF80035
:106180000000FFFFFFFC000001FFFFFFFFFFFFFF1C
:10619000FFFFFFFFFFFFFFFFFFFFFFFFFFFFFFFF0F
:1061A000FFFFFFFFFFFFFFFFFFFFFFFFF800000003
:1061B000FFFFFFFC000001FFFFFFFFFFFFFFFFFFEE
:1061C000FFFFFFFFFFFFFFFFFFFFFFFFFFFFFFFFDF
:1061D000FFFFFFFFFFFFFFFFFFFFF8000000FFFFD3
:1061E000FFFC000001FFFFFFFFFFFFFFFFFFFFFFBE
:1061F000FFFFFFFFFFFFFFFFFFFFFFFFFFFFFFFFAF
:10620000FFFFFFFFFFFFFFFFF8000000FFFFFFFCA5
:10621000000001FFFFFFFFFFFFFFFFFFFFFFFFFF8A
:10622000FFFFFFFFFFFFFFFFFFFFFFFFFFFFFFFF7E
:10623000FFFFFFFFFFFFF8000000FFFFFFFC000073
:1062400001FFFFFFFFFFFFFFFFFFFFFFFFFFFFFF5C
:10625000FFFFFFFFFFFFFFFFFFFFFFFFFFFFFFFF4E
:10626000FFFFFFFFF8000000FFFFFFFC000001FF41
:10627000FFFFFFFFFFFFFFFFFFFFFFFFFFFFFFFF2E
:10628000FFFFFFFFFFFFFFFFFFFFFFFFFFFFFFFF1E
:10629000FFFFF8000000FFFFFFFC000001FFFFFF11
:1062A000FFFFFFFFFFFFFFFFFFFFFFFFFFFFFFFFFE
:1062B000FFFFFFFFFFFFFFFFFFFFFFFFFFFFFFFFEE
:1062C000F8000000FFFFFFFC000001FFF0000003EA
:1062D000FFFFFFFFFFFFFFFFFFFFFFFFFFFFFFFFCE
:1062E000FFFFFFFFFFFFFFFFFFFFFFFFFFFFF800C4
:1062F0000000FFFFFFFC000001FFF0000003FFFFB4
:10630000FFFFFFFFFFFFFFFFFFFFFFFFFFFFFFFF9D
:10631000FFFFFFFFFFFFFFFFFFFFFFFFF800000091
:10632000FFFFFFFC000001FFF0000003FFFFFFFF85
:10633000FFFFFFFFFFFFFFFFFFFFFFFFFFFFFFFF6D
:10634000FFFFFFFFFFFFFFFFFFFFF8000000FFFF61
:10635000FFFC000001FFF0000003FFFFFFFFFFFF55
:10636000FFFFFFFFFFFFFFFFFFFFFFFFFFFFFFFF3D
:10637000FFFFFFFFFFFFFFFFFFFFFFFFFFFFFFFC30
:10638000000001FFF0000003FFFFFFFFFFFFFFFF22
:10639000FFFFFFFFFFFFFFFFFFFFFFFFFFFFFFFF0D
:1063A000FFFFFFFFFFFFFFFFFFFFFFFFFFFC0000FE
:1063B00001FFF0000003FFFFFFFFFFFFFFFFFFFFF4
:1063C000FFFFFFFFFFFFFFFFFFFFFFFFFFFFFFFFDD
:1063D000FFFFFFFFFFFFFFFFFFFFFFFC000001FFCC
:1063E000F0000003FFFFFFFFFFFFFFFFFFFFFFFFC6
:1063F000FFFFFFFFFFFFFFFFFFFFFFFFFFFFFFFFAD
:10640000FFFFFFFFFFFFFFFFFFFC000001FFF000A9
:106410000003FFFFFFFFFFFFFFFFFFFFFFFFFFFF87
:10642000FFFFFFFFFFFFFFFFFFFFFFFFFFFFFFFF7C
:10643000FFFFFFFFFFFFFFFC000001FFF000000374
:10644000FFFFFFFFFFFFFFFFFFFFFFFFFFFFFFFF5C
:10645000FFFFFFFFFFFFFFFFFFFFFFFFFFFFFFFF4C
:10646000FFFFFFFFFFFC000001FFF0000003FFFF44
:10647000FFFFFFFFFFFFFFFFFFFFFFFFFFFFFFFF2C
:10648000FFFFFFFFFFFFFFFFFFFFFFFFFFFFFFFF1C
:10649000FFFFFFFC000001FFF0000003FFFFFFFF14
:1064A000FFFFFFFFFFFFFFFFFFFFFFFFFFFFFFFFFC
:1064B000FFFFFFFFFFFFFFFFFFFFFFFFFFFFFFFFEC
:1064C000FFFC000001FFF0000003FFFFFFFFFFFFE4
:1064D000FFFFFFFFFFFFFFFFFFFFFFFFFFFFFFFFCC
:1064E000FFFFFFFFFFFFFFFFFFFFFFFFFFFFFFFCBF
:1064F000000001FFF0000003FFFFFFFFFFFFFFFFB1
:10650000FFFFFFFFFFFFFFFFFFFFFFFFFFFFFFFF9B
:10651000FFFFFFFFFFFFFC00000000000000000085
:1065200001FFF0000003FFFFFFFFFFFFFFFFFFFF82
:10653000FFFFFFFFFFFFFFFFFFFFFFFFFFFFFFFF6B
:10654000FFFFFFFFF800000000000000000001FF57
:10655000F0000003FFFFFFFFFFFFFFFFFFFFFFFF54
:10656000FFFFFFFFFFFFFFFFFFFFFFFFFFFFFFFF3B
:10657000FFFFF800000000000000000001FFF00035
:106580000003FFFFFFFFFFFFFFFFFFFFFFFFFFFF16
:10659000FFFFFFFFFFFFFFFFFFFFFFFFFFFFFFFF0B
:1065A000F800000000000000000001FFF000000300
:1065B000FFFFFFFFFFFFFFFFFFFFFFFFFFFFFFFFEB
:1065C000FFFFFFFFFFFFFFFFFFFFFFFFFFFFF800E1
:1065D000000000000000000001FFF0000003FFFFCA
:1065E000FFFFFFFFFFFFFFFFFFFFFFFFFFFFFFFFBB
:1065F000FFFFFFFFFFFFFFFFFFFFFFFFF8000000AF
:1066000000000000000001FFF0000003FFFFFFFF9B
:10661000FFFFFFFFFFFFFFFFFFFFFFFFFFFFFFFF8A
:10662000FFFFFFFFFFFFFFFFFFFFF800000000007C
:106630000000000001FFF0000003FFFFFFFFFFFF6D
:10664000FFFFFFFFFFFFFFFFFFFFFFFFFFFFFFFF5A
:10665000FFFFFFFFFFFFFFFFF8000000000000004A
:10666000000001FFF0000003FFFFFFFFFFFFFFFF3F
:10667000FFFFFFFFFFFFFFFFFFFFFFFFFFFFFFFF2A
:10668000FFFFFFFFFFFFF800000000000000000018
:1066900001FFF0000003FFFFFFFFFFFFFFFFFFFF11
:1066A000FFFFFFFFFFFFFFFFFFFFFFFFFFFFFFFFFA
:1066B000FFFFFFFFF800000000000000000001FFE6
:1066C000F0000003FFFFFFFFFFFFFFFFFFFFFFFFE3
:1066D000FFFFFFFFFFFFFFFFFFFFFFFFFFFFFFFFCA
:1066E000FFFFF800000000000000000001FFF000C4
:1066F0000003FFFFFFFFFFFFFFFFFFFFFFFFFFFFA5
:10670000FFFFFFFFFFFFFFFFFFFFFFFFFFFFFFFF99
:10671000F800000000000000000001FFF00000038E
:10672000FFFFFFFFFFFFFFFFFFFFFFFFFFFFFFFF79
:10673000FFFFFFFFFFFFFFFFFFFFFFFFFFFFF8006F
:10674000000000000000000001FFF0000003FFFF58
:10675000FFFFFFFFFFFFFFFFFFFFFFFFFFFFFFFF49
:10676000FFFFFFFFFFFFFFFFFFFFFFFFF80000003D
:1067700000000000000001FFF0000003FFFFFFFF2A
:10678000FFFFFFFFFFFFFFFFFFFFFFFFFFFFFFFF19
:10679000FFFFFFFFFFFFFFFFFFFFF800000000000B
:1067A0000000000001FFF0000003FFFFFFFFFFFFFC
:1067B000FFFFFFFFFFFFFFFFFFFFFFFFFFFFFFFFE9
:1067C000FFFFFFFFFFFFFFFFF800000000000000D9
:1067D000000001FFF0000003FFFFFFFFFFFFFFFFCE
:1067E000FFFFFFFFFFFFFFFFFFFFFFFFFFFFFFFFB9
:1067F000FFFFFFFFFFFFF8000000000000000000A7
:1068000001FFF0000003FFFFFFFFFFFFFFFFFFFF9F
:10681000FFFFFFFFFFFFFFFFFFFFFFFFFFFFFFFF88
:10682000FFFFFFFFF800000000000000000001FF74
:10683000F0000003FFFFFFFFFFFFFFFFFFFFFFFF71
:10684000FFFFFFFFFFFFFFFFFFFFFFFFFFFFFFFF58
:10685000FFFFF800000000000000000001FFF00052
:106860000003FFFFFFFFFFFFFFFFFFFFFFFFFFFF33
:10687000FFFFFFFFFFFFFFFFFFFFFFFFFFFFFFFF28
:10688000F800000000000000000001FFF00000031D
:10689000FFFFFFFFFFFFFFFFFFFFFFFFFFFFFFFF08
:1068A000FFFFFFFFFFFFFFFFFFFFFFFFFFFFF800FE
:1068B000000000000000000001FFF0000003FFFFE7
:1068C000FFFFFFFFFFFFFFFFFFFFFFFFFFFFFFFFD8
:1068D000FFFFFFFFFFFFFFFFFFFFFFFFF8000000CC
:1068E00000000000000001FFF0000003FFFFFFFFB9
:1068F000FFFFFFFFFFFFFFFFFFFFFFFFFFFFFFFFA8
:10690000FFFFFFFFFFFFFFFFFFFFF8000000000099
:106910000000000001FFF0000003FFFFFFFFFFFF8A
:10692000FFFFFFFFFFFFFFFFFFFFFFFFFFFFFFFF77
:10693000FFFFFFFFFFFFFFFFF80000000000000067
:10694000000001FFF0000003FFFFFFFFFFFFFFFF5C
:10695000FFFFFFFFFFFFFFFFFFFFFFFFFFFFFFFF47
:10696000FFFFFFFFFFFFF800000000000000000035
:1069700001FFF0000003FFFFFFFFFFFFFFFFFFFF2E
:10698000FFFFFFFFFFFFFFFFFFFFFFFFFFFFFFFF17
:10699000FFFFFFFFF800000000000000000001FF03
:1069A000F0000003FFFFFFFFFFFFFFFFFFFFFFFF00
:1069B000FFFFFFFFFFFFFFFFFFFFFFFFFFFFFFFFE7
:1069C000FFFFF800000000000000000001FFF000E1
:1069D0000003FFFFFFFFFFFFFFFFFFFFFFFFFFFFC2
:1069E000FFFFFFFFFFFFFFFFFFFFFFFFFFFFFFFFB7
:1069F000F8000000FFFFFFFFFFFFFFFFF0000003B4
:106A0000FFFFFFFFFFFFFFFFFFFFFFFFFFFFFFFF96
:106A1000FFFFFFFFFFFFFFFFFFFFFFFFFFFFF8008C
:106A20000000FFFFFFFFFFFFFFFFF0000003FFFF7D
:106A3000FFFFFFFFFFFFFFFFFFFFFFFFFFFFFFFF66
:106A4000FFFFFFFFFFFFFFFFFFFFFFFFF80000005A
:106A5000FFFFFFFFFFFFFFFFF0000003FFFFFFFF4F
:106A6000FFFFFFFFFFFFFFFFFFFFFFFFFFFFFFFF36
:106A7000FFFFFFFFFFFFFFFFFFFFF8000000FFFF2A
:106A8000FFFFFFFFFFFFF0000003FFFFFFFFFFFF1F
:106A9000FFFFFFFFFFFFFFFFFFFFFFFFFFFFFFFF06
:106AA000FFFFFFFFFFFFFFFFF8000000FFFFFFFFFA
:106AB000FFFFFFFFF0000003FFFFFFFFFFFFFFFFEF
:106AC000FFFFFFFFFFFFFFFFFFFFFFFFFFFFFFFFD6
:106AD000FFFFFFFFFFFFF8000000FFFFFFFFFFFFCA
:106AE000FFFFF0000003FFFFFFFFFFFFFFFFFFFFBF
:106AF000FFFFFFFFFFFFFFFFFFFFFFFFFFFFFFFFA6
:106B0000FFFFFFFFF8000000FFFFFFFFFFFFFFFF99
:106B1000F0000003FFFFFFFFFFFFFFFFFFFFFFFF8E
:106B2000FFFFFFFFFFFFFFFFFFFFFFFFFFFFFFFF75
:106B3000FFFFF8000000FFFFFFFFFFFFFFFFF00077
:106B40000003FFFFFFFFFFFFFFFFFFFFFFFFFFFF50
:106B5000FFFFFFFFFFFFFFFFFFFFFFFFFFFFFFFF45
:106B6000F8000000FFFFFFFFFFFFFFFFF000000342
:106B7000FFFFFFFFFFFFFFFFFFFFFFFFFFFFFFFF25
:106B8000FFFFFFFFFFFFFFFFFFFFFFFFFFFFF8001B
:106B90000000FFFFFFFFFFFFFFFFF0000003FFFF0C
:106BA000FFFFFFFFFFFFFFFFFFFFFFFFFFFFFFFFF5
:106BB000FFFFFFFFFFFFFFFFFFFFFFFFF8000000E9
:106BC000FFFFFFFFFFFFFFFFF0000003FFFFFFFFDE
:106BD000FFFFFFFFFFFFFFFFFFFFFFFFFFFFFFFFC5
:106BE000FFFFFFFFFFFFFFFFFFFFF8000000FFFFB9
:106BF000FFFFFFFFFFFFF0000003FFFFFFFFFFFFAE
:106C0000FFFFFFFFFFFFFFFFFFFFFFFFFFFFFFFF94
:106C1000FFFFFFFFFFFFFFFFF8000000FFFFFFFF88
:106C2000FFFFFFFFF0000003FFFFFFFFFFFFFFFF7D
:106C3000FFFFFFFFFFFFFFFFFFFFFFFFFFFFFFFF64
:106C4000FFFFFFFFFFFFF8000000FFFFFFFFFFFF58
:106C5000FFFFF0000003FFFFFFFFFFFFFFFFFFFF4D
:106C6000FFFFFFFFFFFFFFFFFFFFFFFFFFFFFFFF34
:106C7000FFFFFFFFF8000000FFFFFFFFFFFFFFFF28
:106C8000F0000003FFFFFFFFFFFFFFFFFFFFFFFF1D
:106C9000FFFFFFFFFFFFFFFFFFFFFFFFFFFFFFFF04
:106CA000FFFFF8000000FFFFFFFFFFFFFFFFF00006
:106CB0000003FFFFFFFFFFFFFFFFFFFFFFFFFFFFDF
:106CC000FFFFFFFFFFFFFFFFFFFFFFFFFFFFFFFFD4
:106CD000F8000000FFFFFFFFFFFFFFFFF0000003D1
:106CE000FFFFFFFFFFFFFFFFFFFFFFFFFFFFFFFFB4
:106CF000FFFFFFFFFFFFFFFFFFFFFFFFFFFFF800AA
:106D00000000000000000000000000000003FFFF82
:106D1000FFFFFFFFFFFFFFFFFFFFFFFFFFFFFFFF83
:106D2000FFFFFFFFFFFFFFFFFFFFFFFFF800000077
:106D3000000000000000000000000003FFFFFFFF54
:106D4000FFFFFFFFFFFFFFFFFFFFFFFFFFFFFFFF53
:106D5000FFFFFFFFFFFFFFFFFFFFF8000000000045
:106D600000000000000000000003FFFFFFFFFFFF26
:106D7000FFFFFFFFFFFFFFFFFFFFFFFFFFFFFFFF23
:106D8000FFFFFFFFFFFFFFFFF80000000000000013
:106D90000000000000000003FFFFFFFFFFFFFFFFF8
:106DA000FFFFFFFFFFFFFFFFFFFFFFFFFFFFFFFFF3
:106DB000FFFFFFFFFFFFF8000000000000000000E1
:106DC000000000000003FFFFFFFFFFFFFFFFFFFFCA
:106DD000FFFFFFFFFFFFFFFFFFFFFFFFFFFFFFFFC3
:106DE000FFFFFFFFF80000000000000000000000AF
:106DF00000000003FFFFFFFFFFFFFFFFFFFFFFFF9C
:106E0000FFFFFFFFFFFFFFFFFFFFFFFFFFFFFFFF92
:106E1000FFFFF8000000000000000000000000007C
:106E20000003FFFFFFFFFFFFFFFFFFFFFFFFFFFF6D
:106E3000FFFFFFFFFFFFFFFFFFFFFFFFFFFFFFFF62
:106E4000F800000000000000000000000000000347
:106E5000FFFFFFFFFFFFFFFFFFFFFFFFFFFFFFFF42
:106E6000FFFFFFFFFFFFFFFFFFFFFFFFFFFFF80038
:106E70000000000000000000000000000003FFFF11
:106E8000FFFFFFFFFFFFFFFFFFFFFFFFFFFFFFFF12
:106E9000FFFFFFFFFFFFFFFFFFFFFFFFF800000006
:106EA000000000000000000000000003FFFFFFFFE3
:106EB000FFFFFFFFFFFFFFFFFFFFFFFFFFFFFFFFE2
:106EC000FFFFFFFFFFFFFFFFFFFFF80000000000D4
:106ED00000000000000000000003FFFFFFFFFFFFB5
:106EE000FFFFFFFFFFFFFFFFFFFFFFFFFFFFFFFFB2
:106EF000FFFFFFFFFFFFFFFFF800000000000000A2
:106F00000000000000000003FFFFFFFFFFFFFFFF86
:106F1000FFFFFFFFFFFFFFFFFFFFFFFFFFFFFFFF81
:106F2000FFFFFFFFFFFFF80000000000000000006F
:106F3000000000000003FFFFFFFFFFFFFFFFFFFF58
:106F4000FFFFFFFFFFFFFFFFFFFFFFFFFFFFFFFF51
:106F5000FFFFFFFFF800000000000000000000003D
:106F600000000003FFFFFFFFFFFFFFFFFFFFFFFF2A
:106F7000FFFFFFFFFFFFFFFFFFFFFFFFFFFFFFFF21
:106F8000FFFFF8000000000000000000000000000B
:106F90000003FFFFFFFFFFFFFFFFFFFFFFFFFFFFFC
:106FA000FFFFFFFFFFFFFFFFFFFFFFFFFFFFFFFFF1
:106FB000F8000000000000000000000000000003D6
:106FC000FFFFFFFFFFFFFFFFFFFFFFFFFFFFFFFFD1
:106FD000FFFFFFFFFFFFFFFFFFFFFFFFFFFFF800C7
:106FE0000000000000000000000000000003FFFFA0
:106FF000FFFFFFFFFFFFFFFFFFFFFFFFFFFFFFFFA1
:10700000FFFFFFFFFFFFFFFFFFFFFFFFF800000094
:10701000000000000000000000000003FFFFFFFF71
:10702000FFFFFFFFFFFFFFFFFFFFFFFFFFFFFFFF70
:10703000FFFFFFFFFFFFFFFFFFFFF8000000000062
:1070400000000000000000000003FFFFFFFFFFFF43
:10705000FFFFFFFFFFFFFFFFFFFFFFFFFFFFFFFF40
:10706000FFFFFFFFFFFFFFFFF80000000000000030
:107070000000000000000003FFFFFFFFFFFFFFFF15
:10708000FFFFFFFFFFFFFFFFFFFFFFFFFFFFFFFF10
:10709000FFFFFFFFFFFFF8000000000000000000FE
:1070A000000000000003FFFFFFFFFFFFFFFFFFFFE7
:1070B000FFFFFFFFFFFFFFFFFFFFFFFFFFFFFFFFE0
:1070C000FFFFFFFFF80000000000000000000000CC
:1070D00000000003FFFFFFFFFFFFFFFFFFFFFFFFB9
:1070E000FFFFFFFFFFFFFFFFFFFFFFFFFFFFFFFFB0
:1070F000FFFFF8000000000000000000000000009A
